{
  "_format": "hh-sol-artifact-1",
  "contractName": "SkillTree",
  "sourceName": "contracts/SkillTree.sol",
  "abi": [
    {
      "inputs": [],
      "stateMutability": "nonpayable",
      "type": "constructor"
    },
    {
      "inputs": [
        {
          "internalType": "string",
          "name": "_name",
          "type": "string"
        },
        {
          "internalType": "uint256",
          "name": "_level",
          "type": "uint256"
        }
      ],
      "name": "addSkill",
      "outputs": [],
      "stateMutability": "nonpayable",
      "type": "function"
    },
    {
      "inputs": [
        {
          "internalType": "address",
          "name": "_userAddress",
          "type": "address"
        },
        {
          "internalType": "uint32",
          "name": "_skillId",
          "type": "uint32"
        }
      ],
      "name": "addSkillValidation",
      "outputs": [],
      "stateMutability": "nonpayable",
      "type": "function"
    },
    {
      "inputs": [
        {
          "internalType": "address",
          "name": "_userAddress",
          "type": "address"
        },
        {
          "internalType": "string",
          "name": "_firstName",
          "type": "string"
        },
        {
          "internalType": "string",
          "name": "_lastName",
          "type": "string"
        }
      ],
      "name": "addUser",
      "outputs": [],
      "stateMutability": "nonpayable",
      "type": "function"
    },
    {
      "inputs": [
        {
          "internalType": "uint32",
          "name": "_skillId",
          "type": "uint32"
        }
      ],
      "name": "deleteSkill",
      "outputs": [],
      "stateMutability": "nonpayable",
      "type": "function"
    },
    {
      "inputs": [
        {
          "internalType": "string",
          "name": "_lastName",
          "type": "string"
        },
        {
          "internalType": "string",
          "name": "_firstName",
          "type": "string"
        }
      ],
      "name": "editProfile",
      "outputs": [],
      "stateMutability": "nonpayable",
      "type": "function"
    },
    {
      "inputs": [
        {
          "internalType": "uint32",
          "name": "_skillId",
          "type": "uint32"
        },
        {
          "internalType": "string",
          "name": "_name",
          "type": "string"
        },
        {
          "internalType": "uint256",
          "name": "_level",
          "type": "uint256"
        }
      ],
      "name": "editSkill",
      "outputs": [],
      "stateMutability": "nonpayable",
      "type": "function"
    },
    {
      "inputs": [
        {
          "internalType": "address",
          "name": "_address",
          "type": "address"
        }
      ],
      "name": "getProfile",
      "outputs": [
        {
          "components": [
            {
              "internalType": "string",
              "name": "lastName",
              "type": "string"
            },
            {
              "internalType": "string",
              "name": "firstName",
              "type": "string"
            },
            {
              "components": [
                {
                  "internalType": "string",
                  "name": "name",
                  "type": "string"
                },
                {
                  "internalType": "uint256",
                  "name": "level",
                  "type": "uint256"
                },
                {
                  "components": [
                    {
                      "internalType": "address",
                      "name": "validatorAddress",
                      "type": "address"
                    },
                    {
                      "components": [
                        {
                          "internalType": "string",
                          "name": "lastName",
                          "type": "string"
                        },
                        {
                          "internalType": "string",
                          "name": "firstName",
                          "type": "string"
                        }
                      ],
                      "internalType": "struct SkillTree.Profile",
                      "name": "validator",
                      "type": "tuple"
                    },
                    {
                      "internalType": "uint32",
                      "name": "skillId",
                      "type": "uint32"
                    }
                  ],
                  "internalType": "struct SkillTree.SkillValidationDto[]",
                  "name": "validations",
                  "type": "tuple[]"
                }
              ],
              "internalType": "struct SkillTree.SkillDto[]",
              "name": "skills",
              "type": "tuple[]"
            }
          ],
          "internalType": "struct SkillTree.ProfileDto",
          "name": "",
          "type": "tuple"
        }
      ],
      "stateMutability": "view",
      "type": "function"
    },
    {
      "inputs": [
        {
          "internalType": "address",
          "name": "_address",
          "type": "address"
        }
      ],
      "name": "getUserSkillValidations",
      "outputs": [
        {
          "components": [
            {
              "internalType": "address",
              "name": "validatorAddress",
              "type": "address"
            },
            {
              "components": [
                {
                  "internalType": "string",
                  "name": "lastName",
                  "type": "string"
                },
                {
                  "internalType": "string",
                  "name": "firstName",
                  "type": "string"
                }
              ],
              "internalType": "struct SkillTree.Profile",
              "name": "validator",
              "type": "tuple"
            },
            {
              "internalType": "uint32",
              "name": "skillId",
              "type": "uint32"
            }
          ],
          "internalType": "struct SkillTree.SkillValidationDto[]",
          "name": "",
          "type": "tuple[]"
        }
      ],
      "stateMutability": "view",
      "type": "function"
    },
    {
      "inputs": [
        {
          "internalType": "address",
          "name": "_address",
          "type": "address"
        }
      ],
      "name": "getUserSkills",
      "outputs": [
        {
          "components": [
            {
              "internalType": "string",
              "name": "name",
              "type": "string"
            },
            {
              "internalType": "uint256",
              "name": "level",
              "type": "uint256"
            },
            {
              "components": [
                {
                  "internalType": "address",
                  "name": "validatorAddress",
                  "type": "address"
                },
                {
                  "components": [
                    {
                      "internalType": "string",
                      "name": "lastName",
                      "type": "string"
                    },
                    {
                      "internalType": "string",
                      "name": "firstName",
                      "type": "string"
                    }
                  ],
                  "internalType": "struct SkillTree.Profile",
                  "name": "validator",
                  "type": "tuple"
                },
                {
                  "internalType": "uint32",
                  "name": "skillId",
                  "type": "uint32"
                }
              ],
              "internalType": "struct SkillTree.SkillValidationDto[]",
              "name": "validations",
              "type": "tuple[]"
            }
          ],
          "internalType": "struct SkillTree.SkillDto[]",
          "name": "",
          "type": "tuple[]"
        }
      ],
      "stateMutability": "view",
      "type": "function"
    },
    {
      "inputs": [],
      "name": "listProfiles",
      "outputs": [
        {
          "components": [
            {
              "internalType": "string",
              "name": "lastName",
              "type": "string"
            },
            {
              "internalType": "string",
              "name": "firstName",
              "type": "string"
            },
            {
              "components": [
                {
                  "internalType": "string",
                  "name": "name",
                  "type": "string"
                },
                {
                  "internalType": "uint256",
                  "name": "level",
                  "type": "uint256"
                },
                {
                  "components": [
                    {
                      "internalType": "address",
                      "name": "validatorAddress",
                      "type": "address"
                    },
                    {
                      "components": [
                        {
                          "internalType": "string",
                          "name": "lastName",
                          "type": "string"
                        },
                        {
                          "internalType": "string",
                          "name": "firstName",
                          "type": "string"
                        }
                      ],
                      "internalType": "struct SkillTree.Profile",
                      "name": "validator",
                      "type": "tuple"
                    },
                    {
                      "internalType": "uint32",
                      "name": "skillId",
                      "type": "uint32"
                    }
                  ],
                  "internalType": "struct SkillTree.SkillValidationDto[]",
                  "name": "validations",
                  "type": "tuple[]"
                }
              ],
              "internalType": "struct SkillTree.SkillDto[]",
              "name": "skills",
              "type": "tuple[]"
            }
          ],
          "internalType": "struct SkillTree.ProfileDto[]",
          "name": "",
          "type": "tuple[]"
        }
      ],
      "stateMutability": "view",
      "type": "function"
    },
    {
      "inputs": [],
      "name": "listUsers",
      "outputs": [
        {
          "internalType": "address[]",
          "name": "",
          "type": "address[]"
        }
      ],
      "stateMutability": "view",
      "type": "function"
    }
  ],
  "bytecode": "0x608060405234801561001057600080fd5b506137eb806100206000396000f3fe608060405234801561001057600080fd5b50600436106100a95760003560e01c8063aecd0c3111610071578063aecd0c3114610164578063c9bf7b1a14610182578063d2886ebc1461019e578063d4819b4c146101ce578063d7554a68146101ea578063e143dbe914610206576100a9565b80630f53a470146100ae57806326ab363d146100de578063835553351461010e5780638ad257b71461012a578063a99d0a9914610148575b600080fd5b6100c860048036038101906100c39190612470565b610222565b6040516100d59190612841565b60405180910390f35b6100f860048036038101906100f39190612470565b610426565b60405161010591906128e9565b60405180910390f35b61012860048036038101906101239190612a40565b6107a9565b005b6101326109f9565b60405161013f9190612b67565b60405180910390f35b610162600480360381019061015d9190612bb5565b610c27565b005b61016c610d1b565b6040516101799190612d31565b60405180910390f35b61019c60048036038101906101979190612d7f565b610f99565b005b6101b860048036038101906101b39190612470565b611364565b6040516101c59190612e45565b60405180910390f35b6101e860048036038101906101e39190612e67565b61182c565b005b61020460048036038101906101ff9190612e94565b611e00565b005b610220600480360381019061021b9190612f1f565b611eea565b005b61022a6122cc565b60008060008473ffffffffffffffffffffffffffffffffffffffff1673ffffffffffffffffffffffffffffffffffffffff16815260200190815260200160002060405180604001604052908160008201805461028590612fbd565b80601f01602080910402602001604051908101604052809291908181526020018280546102b190612fbd565b80156102fe5780601f106102d3576101008083540402835291602001916102fe565b820191906000526020600020905b8154815290600101906020018083116102e157829003601f168201915b5050505050815260200160018201805461031790612fbd565b80601f016020809104026020016040519081016040528092919081815260200182805461034390612fbd565b80156103905780601f1061036557610100808354040283529160200191610390565b820191906000526020600020905b81548152906001019060200180831161037357829003601f168201915b5050505050815250509050600081600001515111806103b457506000816020015151115b6103f3576040517f08c379a00000000000000000000000000000000000000000000000000000000081526004016103ea9061304b565b60405180910390fd5b6040518060600160405280826000015181526020018260200151815260200161041b85611364565b815250915050919050565b60606000600260008473ffffffffffffffffffffffffffffffffffffffff1673ffffffffffffffffffffffffffffffffffffffff168152602001908152602001600020805480602002602001604051908101604052809291908181526020016000905b82821015610533578382906000526020600020016040518060400160405290816000820160009054906101000a900473ffffffffffffffffffffffffffffffffffffffff1673ffffffffffffffffffffffffffffffffffffffff1673ffffffffffffffffffffffffffffffffffffffff1681526020016000820160149054906101000a900463ffffffff1663ffffffff1663ffffffff168152505081526020019060010190610489565b5050505090506000815167ffffffffffffffff81111561055657610555612915565b5b60405190808252806020026020018201604052801561058f57816020015b61057c6122ed565b8152602001906001900390816105745790505b50905060005b825181101561079e5760008382815181106105b3576105b261306b565b5b602002602001015190506040518060600160405280826000015173ffffffffffffffffffffffffffffffffffffffff168152602001600080846000015173ffffffffffffffffffffffffffffffffffffffff1673ffffffffffffffffffffffffffffffffffffffff16815260200190815260200160002060405180604001604052908160008201805461064590612fbd565b80601f016020809104026020016040519081016040528092919081815260200182805461067190612fbd565b80156106be5780601f10610693576101008083540402835291602001916106be565b820191906000526020600020905b8154815290600101906020018083116106a157829003601f168201915b505050505081526020016001820180546106d790612fbd565b80601f016020809104026020016040519081016040528092919081815260200182805461070390612fbd565b80156107505780601f1061072557610100808354040283529160200191610750565b820191906000526020600020905b81548152906001019060200180831161073357829003601f168201915b5050505050815250508152602001826020015163ffffffff1681525083838151811061077f5761077e61306b565b5b6020026020010181905250508080610796906130c9565b915050610595565b508092505050919050565b60008060003373ffffffffffffffffffffffffffffffffffffffff1673ffffffffffffffffffffffffffffffffffffffff16815260200190815260200160002060405180604001604052908160008201805461080490612fbd565b80601f016020809104026020016040519081016040528092919081815260200182805461083090612fbd565b801561087d5780601f106108525761010080835404028352916020019161087d565b820191906000526020600020905b81548152906001019060200180831161086057829003601f168201915b5050505050815260200160018201805461089690612fbd565b80601f01602080910402602001604051908101604052809291908181526020018280546108c290612fbd565b801561090f5780601f106108e45761010080835404028352916020019161090f565b820191906000526020600020905b8154815290600101906020018083116108f257829003601f168201915b50505050508152505090506000816000015151118061093357506000816020015151115b610972576040517f08c379a00000000000000000000000000000000000000000000000000000000081526004016109699061315d565b60405180910390fd5b6040518060400160405280848152602001838152506000803373ffffffffffffffffffffffffffffffffffffffff1673ffffffffffffffffffffffffffffffffffffffff16815260200190815260200160002060008201518160000190816109da9190613329565b5060208201518160010190816109f09190613329565b50905050505050565b60606000805b600380549050811015610a9f573373ffffffffffffffffffffffffffffffffffffffff1660038281548110610a3757610a3661306b565b5b9060005260206000200160009054906101000a900473ffffffffffffffffffffffffffffffffffffffff1673ffffffffffffffffffffffffffffffffffffffff1614610a8c578180610a88906130c9565b9250505b8080610a97906130c9565b9150506109ff565b5060008167ffffffffffffffff811115610abc57610abb612915565b5b604051908082528060200260200182016040528015610aea5781602001602082028036833780820191505090505b5090506000805b600380549050811015610c1d573373ffffffffffffffffffffffffffffffffffffffff1660038281548110610b2957610b2861306b565b5b9060005260206000200160009054906101000a900473ffffffffffffffffffffffffffffffffffffffff1673ffffffffffffffffffffffffffffffffffffffff1614610c0a5760038181548110610b8357610b8261306b565b5b9060005260206000200160009054906101000a900473ffffffffffffffffffffffffffffffffffffffff16838381518110610bc157610bc061306b565b5b602002602001019073ffffffffffffffffffffffffffffffffffffffff16908173ffffffffffffffffffffffffffffffffffffffff16815250508180610c06906130c9565b9250505b8080610c15906130c9565b915050610af1565b5081935050505090565b60018110158015610c39575060058111155b610c78576040517f08c379a0000000000000000000000000000000000000000000000000000000008152600401610c6f9061346d565b60405180910390fd5b600160003373ffffffffffffffffffffffffffffffffffffffff1673ffffffffffffffffffffffffffffffffffffffff16815260200190815260200160002060405180604001604052808481526020018381525090806001815401808255809150506001900390600052602060002090600202016000909190919091506000820151816000019081610d0a9190613329565b506020820151816001015550505050565b60606000610d276109f9565b90506000815167ffffffffffffffff811115610d4657610d45612915565b5b604051908082528060200260200182016040528015610d7f57816020015b610d6c6122cc565b815260200190600190039081610d645790505b50905060005b8251811015610f90576000806000858481518110610da657610da561306b565b5b602002602001015173ffffffffffffffffffffffffffffffffffffffff1673ffffffffffffffffffffffffffffffffffffffff168152602001908152602001600020604051806040016040529081600082018054610e0390612fbd565b80601f0160208091040260200160405190810160405280929190818152602001828054610e2f90612fbd565b8015610e7c5780601f10610e5157610100808354040283529160200191610e7c565b820191906000526020600020905b815481529060010190602001808311610e5f57829003601f168201915b50505050508152602001600182018054610e9590612fbd565b80601f0160208091040260200160405190810160405280929190818152602001828054610ec190612fbd565b8015610f0e5780601f10610ee357610100808354040283529160200191610f0e565b820191906000526020600020905b815481529060010190602001808311610ef157829003601f168201915b505050505081525050905060405180606001604052808260000151815260200182602001518152602001610f5b868581518110610f4e57610f4d61306b565b5b6020026020010151611364565b815250838381518110610f7157610f7061306b565b5b6020026020010181905250508080610f88906130c9565b915050610d85565b50809250505090565b8173ffffffffffffffffffffffffffffffffffffffff163373ffffffffffffffffffffffffffffffffffffffff1603611007576040517f08c379a0000000000000000000000000000000000000000000000000000000008152600401610ffe906134ff565b60405180910390fd5b600160008373ffffffffffffffffffffffffffffffffffffffff1673ffffffffffffffffffffffffffffffffffffffff168152602001908152602001600020805490508163ffffffff1610611091576040517f08c379a00000000000000000000000000000000000000000000000000000000081526004016110889061356b565b60405180910390fd5b60008060003373ffffffffffffffffffffffffffffffffffffffff1673ffffffffffffffffffffffffffffffffffffffff1681526020019081526020016000206040518060400160405290816000820180546110ec90612fbd565b80601f016020809104026020016040519081016040528092919081815260200182805461111890612fbd565b80156111655780601f1061113a57610100808354040283529160200191611165565b820191906000526020600020905b81548152906001019060200180831161114857829003601f168201915b5050505050815260200160018201805461117e90612fbd565b80601f01602080910402602001604051908101604052809291908181526020018280546111aa90612fbd565b80156111f75780601f106111cc576101008083540402835291602001916111f7565b820191906000526020600020905b8154815290600101906020018083116111da57829003601f168201915b50505050508152505090506000816000015151118061121b57506000816020015151115b61125a576040517f08c379a0000000000000000000000000000000000000000000000000000000008152600401611251906135d7565b60405180910390fd5b600260008473ffffffffffffffffffffffffffffffffffffffff1673ffffffffffffffffffffffffffffffffffffffff16815260200190815260200160002060405180604001604052803373ffffffffffffffffffffffffffffffffffffffff1681526020018463ffffffff168152509080600181540180825580915050600190039060005260206000200160009091909190915060008201518160000160006101000a81548173ffffffffffffffffffffffffffffffffffffffff021916908373ffffffffffffffffffffffffffffffffffffffff16021790555060208201518160000160146101000a81548163ffffffff021916908363ffffffff1602179055505050505050565b60606000600160008473ffffffffffffffffffffffffffffffffffffffff1673ffffffffffffffffffffffffffffffffffffffff1681526020019081526020016000208054905067ffffffffffffffff8111156113c4576113c3612915565b5b6040519080825280602002602001820160405280156113fd57816020015b6113ea612330565b8152602001906001900390816113e25790505b50905060005b600160008573ffffffffffffffffffffffffffffffffffffffff1673ffffffffffffffffffffffffffffffffffffffff16815260200190815260200160002080549050811015611822576000600160008673ffffffffffffffffffffffffffffffffffffffff1673ffffffffffffffffffffffffffffffffffffffff16815260200190815260200160002082815481106114a05761149f61306b565b5b90600052602060002090600202016040518060400160405290816000820180546114c990612fbd565b80601f01602080910402602001604051908101604052809291908181526020018280546114f590612fbd565b80156115425780601f1061151757610100808354040283529160200191611542565b820191906000526020600020905b81548152906001019060200180831161152557829003601f168201915b50505050508152602001600182015481525050905060006115638684612067565b90506000815167ffffffffffffffff81111561158257611581612915565b5b6040519080825280602002602001820160405280156115bb57816020015b6115a86122ed565b8152602001906001900390816115a05790505b50905060005b82518110156117ca5760008382815181106115df576115de61306b565b5b602002602001015190506040518060600160405280826000015173ffffffffffffffffffffffffffffffffffffffff168152602001600080846000015173ffffffffffffffffffffffffffffffffffffffff1673ffffffffffffffffffffffffffffffffffffffff16815260200190815260200160002060405180604001604052908160008201805461167190612fbd565b80601f016020809104026020016040519081016040528092919081815260200182805461169d90612fbd565b80156116ea5780601f106116bf576101008083540402835291602001916116ea565b820191906000526020600020905b8154815290600101906020018083116116cd57829003601f168201915b5050505050815260200160018201805461170390612fbd565b80601f016020809104026020016040519081016040528092919081815260200182805461172f90612fbd565b801561177c5780601f106117515761010080835404028352916020019161177c565b820191906000526020600020905b81548152906001019060200180831161175f57829003601f168201915b5050505050815250508152602001826020015163ffffffff168152508383815181106117ab576117aa61306b565b5b60200260200101819052505080806117c2906130c9565b9150506115c1565b5060405180606001604052808460000151815260200184602001518152602001828152508585815181106118015761180061306b565b5b6020026020010181905250505050808061181a906130c9565b915050611403565b5080915050919050565b600160003373ffffffffffffffffffffffffffffffffffffffff1673ffffffffffffffffffffffffffffffffffffffff168152602001908152602001600020805490508163ffffffff16106118b6576040517f08c379a00000000000000000000000000000000000000000000000000000000081526004016118ad9061356b565b60405180910390fd5b60008163ffffffff1690505b60018060003373ffffffffffffffffffffffffffffffffffffffff1673ffffffffffffffffffffffffffffffffffffffff1681526020019081526020016000208054905061191091906135f7565b811015611a1657600160003373ffffffffffffffffffffffffffffffffffffffff1673ffffffffffffffffffffffffffffffffffffffff168152602001908152602001600020600182611963919061362b565b815481106119745761197361306b565b5b9060005260206000209060020201600160003373ffffffffffffffffffffffffffffffffffffffff1673ffffffffffffffffffffffffffffffffffffffff16815260200190815260200160002082815481106119d3576119d261306b565b5b9060005260206000209060020201600082018160000190816119f59190613675565b50600182015481600101559050508080611a0e906130c9565b9150506118c2565b50600160003373ffffffffffffffffffffffffffffffffffffffff1673ffffffffffffffffffffffffffffffffffffffff168152602001908152602001600020805480611a6657611a6561375d565b5b600190038181906000526020600020906002020160008082016000611a8b9190612351565b60018201600090555050905560005b600260003373ffffffffffffffffffffffffffffffffffffffff1673ffffffffffffffffffffffffffffffffffffffff16815260200190815260200160002080549050811015611dfc578163ffffffff16600260003373ffffffffffffffffffffffffffffffffffffffff1673ffffffffffffffffffffffffffffffffffffffff1681526020019081526020016000208281548110611b3c57611b3b61306b565b5b9060005260206000200160000160149054906101000a900463ffffffff1663ffffffff1603611de95760008190505b6001600260003373ffffffffffffffffffffffffffffffffffffffff1673ffffffffffffffffffffffffffffffffffffffff16815260200190815260200160002080549050611bba91906135f7565b811015611d3757600260003373ffffffffffffffffffffffffffffffffffffffff1673ffffffffffffffffffffffffffffffffffffffff168152602001908152602001600020600182611c0d919061362b565b81548110611c1e57611c1d61306b565b5b90600052602060002001600260003373ffffffffffffffffffffffffffffffffffffffff1673ffffffffffffffffffffffffffffffffffffffff1681526020019081526020016000208281548110611c7957611c7861306b565b5b906000526020600020016000820160009054906101000a900473ffffffffffffffffffffffffffffffffffffffff168160000160006101000a81548173ffffffffffffffffffffffffffffffffffffffff021916908373ffffffffffffffffffffffffffffffffffffffff1602179055506000820160149054906101000a900463ffffffff168160000160146101000a81548163ffffffff021916908363ffffffff1602179055509050508080611d2f906130c9565b915050611b6b565b50600260003373ffffffffffffffffffffffffffffffffffffffff1673ffffffffffffffffffffffffffffffffffffffff168152602001908152602001600020805480611d8757611d8661375d565b5b60019003818190600052602060002001600080820160006101000a81549073ffffffffffffffffffffffffffffffffffffffff02191690556000820160146101000a81549063ffffffff0219169055505090558080611de59061378c565b9150505b8080611df4906130c9565b915050611a9a565b5050565b6040518060400160405280828152602001838152506000808573ffffffffffffffffffffffffffffffffffffffff1673ffffffffffffffffffffffffffffffffffffffff1681526020019081526020016000206000820151816000019081611e689190613329565b506020820151816001019081611e7e9190613329565b509050506003839080600181540180825580915050600190039060005260206000200160009091909190916101000a81548173ffffffffffffffffffffffffffffffffffffffff021916908373ffffffffffffffffffffffffffffffffffffffff160217905550505050565b600160003373ffffffffffffffffffffffffffffffffffffffff1673ffffffffffffffffffffffffffffffffffffffff168152602001908152602001600020805490508363ffffffff1610611f74576040517f08c379a0000000000000000000000000000000000000000000000000000000008152600401611f6b9061356b565b60405180910390fd5b60018110158015611f86575060058111155b611fc5576040517f08c379a0000000000000000000000000000000000000000000000000000000008152600401611fbc9061346d565b60405180910390fd5b604051806040016040528083815260200182815250600160003373ffffffffffffffffffffffffffffffffffffffff1673ffffffffffffffffffffffffffffffffffffffff1681526020019081526020016000208463ffffffff16815481106120315761203061306b565b5b906000526020600020906002020160008201518160000190816120549190613329565b5060208201518160010155905050505050565b60606000600260008573ffffffffffffffffffffffffffffffffffffffff1673ffffffffffffffffffffffffffffffffffffffff168152602001908152602001600020805480602002602001604051908101604052809291908181526020016000905b82821015612174578382906000526020600020016040518060400160405290816000820160009054906101000a900473ffffffffffffffffffffffffffffffffffffffff1673ffffffffffffffffffffffffffffffffffffffff1673ffffffffffffffffffffffffffffffffffffffff1681526020016000820160149054906101000a900463ffffffff1663ffffffff1663ffffffff1681525050815260200190600101906120ca565b5050505090506000805b82518110156121e057600083828151811061219c5761219b61306b565b5b602002602001015190508563ffffffff16816020015163ffffffff16036121cc5782806121c8906130c9565b9350505b5080806121d8906130c9565b91505061217e565b5060008167ffffffffffffffff8111156121fd576121fc612915565b5b60405190808252806020026020018201604052801561223657816020015b612223612391565b81526020019060019003908161221b5790505b5090506000805b84518110156122be57600085828151811061225b5761225a61306b565b5b602002602001015190508763ffffffff16816020015163ffffffff16036122aa57808484815181106122905761228f61306b565b5b602002602001018190525082806122a6906130c9565b9350505b5080806122b6906130c9565b91505061223d565b508194505050505092915050565b60405180606001604052806060815260200160608152602001606081525090565b6040518060600160405280600073ffffffffffffffffffffffffffffffffffffffff16815260200161231d6123c7565b8152602001600063ffffffff1681525090565b60405180606001604052806060815260200160008152602001606081525090565b50805461235d90612fbd565b6000825580601f1061236f575061238e565b601f01602090049060005260206000209081019061238d91906123e1565b5b50565b6040518060400160405280600073ffffffffffffffffffffffffffffffffffffffff168152602001600063ffffffff1681525090565b604051806040016040528060608152602001606081525090565b5b808211156123fa5760008160009055506001016123e2565b5090565b6000604051905090565b600080fd5b600080fd5b600073ffffffffffffffffffffffffffffffffffffffff82169050919050565b600061243d82612412565b9050919050565b61244d81612432565b811461245857600080fd5b50565b60008135905061246a81612444565b92915050565b60006020828403121561248657612485612408565b5b60006124948482850161245b565b91505092915050565b600081519050919050565b600082825260208201905092915050565b60005b838110156124d75780820151818401526020810190506124bc565b60008484015250505050565b6000601f19601f8301169050919050565b60006124ff8261249d565b61250981856124a8565b93506125198185602086016124b9565b612522816124e3565b840191505092915050565b600081519050919050565b600082825260208201905092915050565b6000819050602082019050919050565b6000819050919050565b61256c81612559565b82525050565b600081519050919050565b600082825260208201905092915050565b6000819050602082019050919050565b6125a781612432565b82525050565b600060408301600083015184820360008601526125ca82826124f4565b915050602083015184820360208601526125e482826124f4565b9150508091505092915050565b600063ffffffff82169050919050565b61260a816125f1565b82525050565b6000606083016000830151612628600086018261259e565b506020830151848203602086015261264082826125ad565b91505060408301516126556040860182612601565b508091505092915050565b600061266c8383612610565b905092915050565b6000602082019050919050565b600061268c82612572565b612696818561257d565b9350836020820285016126a88561258e565b8060005b858110156126e457848403895281516126c58582612660565b94506126d083612674565b925060208a019950506001810190506126ac565b50829750879550505050505092915050565b6000606083016000830151848203600086015261271382826124f4565b91505060208301516127286020860182612563565b50604083015184820360408601526127408282612681565b9150508091505092915050565b600061275983836126f6565b905092915050565b6000602082019050919050565b60006127798261252d565b6127838185612538565b93508360208202850161279585612549565b8060005b858110156127d157848403895281516127b2858261274d565b94506127bd83612761565b925060208a01995050600181019050612799565b50829750879550505050505092915050565b6000606083016000830151848203600086015261280082826124f4565b9150506020830151848203602086015261281a82826124f4565b91505060408301518482036040860152612834828261276e565b9150508091505092915050565b6000602082019050818103600083015261285b81846127e3565b905092915050565b600082825260208201905092915050565b600061287f82612572565b6128898185612863565b93508360208202850161289b8561258e565b8060005b858110156128d757848403895281516128b88582612660565b94506128c383612674565b925060208a0199505060018101905061289f565b50829750879550505050505092915050565b600060208201905081810360008301526129038184612874565b905092915050565b600080fd5b600080fd5b7f4e487b7100000000000000000000000000000000000000000000000000000000600052604160045260246000fd5b61294d826124e3565b810181811067ffffffffffffffff8211171561296c5761296b612915565b5b80604052505050565b600061297f6123fe565b905061298b8282612944565b919050565b600067ffffffffffffffff8211156129ab576129aa612915565b5b6129b4826124e3565b9050602081019050919050565b82818337600083830152505050565b60006129e36129de84612990565b612975565b9050828152602081018484840111156129ff576129fe612910565b5b612a0a8482856129c1565b509392505050565b600082601f830112612a2757612a2661290b565b5b8135612a378482602086016129d0565b91505092915050565b60008060408385031215612a5757612a56612408565b5b600083013567ffffffffffffffff811115612a7557612a7461240d565b5b612a8185828601612a12565b925050602083013567ffffffffffffffff811115612aa257612aa161240d565b5b612aae85828601612a12565b9150509250929050565b600081519050919050565b600082825260208201905092915050565b6000819050602082019050919050565b6000612af0838361259e565b60208301905092915050565b6000602082019050919050565b6000612b1482612ab8565b612b1e8185612ac3565b9350612b2983612ad4565b8060005b83811015612b5a578151612b418882612ae4565b9750612b4c83612afc565b925050600181019050612b2d565b5085935050505092915050565b60006020820190508181036000830152612b818184612b09565b905092915050565b612b9281612559565b8114612b9d57600080fd5b50565b600081359050612baf81612b89565b92915050565b60008060408385031215612bcc57612bcb612408565b5b600083013567ffffffffffffffff811115612bea57612be961240d565b5b612bf685828601612a12565b9250506020612c0785828601612ba0565b9150509250929050565b600081519050919050565b600082825260208201905092915050565b6000819050602082019050919050565b60006060830160008301518482036000860152612c5a82826124f4565b91505060208301518482036020860152612c7482826124f4565b91505060408301518482036040860152612c8e828261276e565b9150508091505092915050565b6000612ca78383612c3d565b905092915050565b6000602082019050919050565b6000612cc782612c11565b612cd18185612c1c565b935083602082028501612ce385612c2d565b8060005b85811015612d1f5784840389528151612d008582612c9b565b9450612d0b83612caf565b925060208a01995050600181019050612ce7565b50829750879550505050505092915050565b60006020820190508181036000830152612d4b8184612cbc565b905092915050565b612d5c816125f1565b8114612d6757600080fd5b50565b600081359050612d7981612d53565b92915050565b60008060408385031215612d9657612d95612408565b5b6000612da48582860161245b565b9250506020612db585828601612d6a565b9150509250929050565b600082825260208201905092915050565b6000612ddb8261252d565b612de58185612dbf565b935083602082028501612df785612549565b8060005b85811015612e335784840389528151612e14858261274d565b9450612e1f83612761565b925060208a01995050600181019050612dfb565b50829750879550505050505092915050565b60006020820190508181036000830152612e5f8184612dd0565b905092915050565b600060208284031215612e7d57612e7c612408565b5b6000612e8b84828501612d6a565b91505092915050565b600080600060608486031215612ead57612eac612408565b5b6000612ebb8682870161245b565b935050602084013567ffffffffffffffff811115612edc57612edb61240d565b5b612ee886828701612a12565b925050604084013567ffffffffffffffff811115612f0957612f0861240d565b5b612f1586828701612a12565b9150509250925092565b600080600060608486031215612f3857612f37612408565b5b6000612f4686828701612d6a565b935050602084013567ffffffffffffffff811115612f6757612f6661240d565b5b612f7386828701612a12565b9250506040612f8486828701612ba0565b9150509250925092565b7f4e487b7100000000000000000000000000000000000000000000000000000000600052602260045260246000fd5b60006002820490506001821680612fd557607f821691505b602082108103612fe857612fe7612f8e565b5b50919050565b600082825260208201905092915050565b7f5573657220646f6573206e6f7420657869737400000000000000000000000000600082015250565b6000613035601383612fee565b915061304082612fff565b602082019050919050565b6000602082019050818103600083015261306481613028565b9050919050565b7f4e487b7100000000000000000000000000000000000000000000000000000000600052603260045260246000fd5b7f4e487b7100000000000000000000000000000000000000000000000000000000600052601160045260246000fd5b60006130d482612559565b91507fffffffffffffffffffffffffffffffffffffffffffffffffffffffffffffffff82036131065761310561309a565b5b600182019050919050565b7f50726f66696c6520646f6573206e6f7420657869737400000000000000000000600082015250565b6000613147601683612fee565b915061315282613111565b602082019050919050565b600060208201905081810360008301526131768161313a565b9050919050565b60008190508160005260206000209050919050565b60006020601f8301049050919050565b600082821b905092915050565b6000600883026131df7fffffffffffffffffffffffffffffffffffffffffffffffffffffffffffffffff826131a2565b6131e986836131a2565b95508019841693508086168417925050509392505050565b6000819050919050565b600061322661322161321c84612559565b613201565b612559565b9050919050565b6000819050919050565b6132408361320b565b61325461324c8261322d565b8484546131af565b825550505050565b600090565b61326961325c565b613274818484613237565b505050565b5b818110156132985761328d600082613261565b60018101905061327a565b5050565b601f8211156132dd576132ae8161317d565b6132b784613192565b810160208510156132c6578190505b6132da6132d285613192565b830182613279565b50505b505050565b600082821c905092915050565b6000613300600019846008026132e2565b1980831691505092915050565b600061331983836132ef565b9150826002028217905092915050565b6133328261249d565b67ffffffffffffffff81111561334b5761334a612915565b5b6133558254612fbd565b61336082828561329c565b600060209050601f8311600181146133935760008415613381578287015190505b61338b858261330d565b8655506133f3565b601f1984166133a18661317d565b60005b828110156133c9578489015182556001820191506020850194506020810190506133a4565b868310156133e657848901516133e2601f8916826132ef565b8355505b6001600288020188555050505b505050505050565b7f536b696c6c206c6576656c206d757374206265206265747765656e203120616e60008201527f6420350000000000000000000000000000000000000000000000000000000000602082015250565b6000613457602383612fee565b9150613462826133fb565b604082019050919050565b600060208201905081810360008301526134868161344a565b9050919050565b7f596f752063616e6e6f742076616c696461746520796f7572206f776e20736b6960008201527f6c6c730000000000000000000000000000000000000000000000000000000000602082015250565b60006134e9602383612fee565b91506134f48261348d565b604082019050919050565b60006020820190508181036000830152613518816134dc565b9050919050565b7f536b696c6c20646f6573206e6f74206578697374000000000000000000000000600082015250565b6000613555601483612fee565b91506135608261351f565b602082019050919050565b6000602082019050818103600083015261358481613548565b9050919050565b7f56616c696461746f7220646f6573206e6f742065786973740000000000000000600082015250565b60006135c1601883612fee565b91506135cc8261358b565b602082019050919050565b600060208201905081810360008301526135f0816135b4565b9050919050565b600061360282612559565b915061360d83612559565b92508282039050818111156136255761362461309a565b5b92915050565b600061363682612559565b915061364183612559565b92508282019050808211156136595761365861309a565b5b92915050565b60008154905061366e81612fbd565b9050919050565b81810361368357505061375b565b61368c8261365f565b67ffffffffffffffff8111156136a5576136a4612915565b5b6136af8254612fbd565b6136ba82828561329c565b6000601f8311600181146136e957600084156136d7578287015490505b6136e1858261330d565b865550613754565b601f1984166136f78761317d565b96506137028661317d565b60005b8281101561372a57848901548255600182019150600185019450602081019050613705565b868310156137475784890154613743601f8916826132ef565b8355505b6001600288020188555050505b5050505050505b565b7f4e487b7100000000000000000000000000000000000000000000000000000000600052603160045260246000fd5b600061379782612559565b9150600082036137aa576137a961309a565b5b60018203905091905056fea2646970667358221220d9f1ae60ce4c3cf98bb8f599a93df903b43f2f4f9aec12f0f63cd2c4e835df1464736f6c63430008130033",
  "linkReferences": {},
  "deployedLinkReferences": {}
}