{
  "_format": "hh-sol-artifact-1",
  "contractName": "SkillTree",
  "sourceName": "contracts/SkillTree.sol",
  "abi": [
    {
      "inputs": [],
      "stateMutability": "nonpayable",
      "type": "constructor"
    },
    {
      "inputs": [
        {
          "internalType": "string",
          "name": "_name",
          "type": "string"
        },
        {
          "internalType": "uint256",
          "name": "_level",
          "type": "uint256"
        }
      ],
      "name": "addSkill",
      "outputs": [],
      "stateMutability": "nonpayable",
      "type": "function"
    },
    {
      "inputs": [
        {
          "internalType": "address",
          "name": "_userAddress",
          "type": "address"
        },
        {
          "internalType": "uint32",
          "name": "_skillId",
          "type": "uint32"
        }
      ],
      "name": "addSkillValidation",
      "outputs": [],
      "stateMutability": "nonpayable",
      "type": "function"
    },
    {
      "inputs": [
        {
          "internalType": "address",
          "name": "_userAddress",
          "type": "address"
        },
        {
          "internalType": "string",
          "name": "_firstName",
          "type": "string"
        },
        {
          "internalType": "string",
          "name": "_lastName",
          "type": "string"
        }
      ],
      "name": "addUser",
      "outputs": [],
      "stateMutability": "nonpayable",
      "type": "function"
    },
    {
      "inputs": [
        {
          "internalType": "uint32",
          "name": "_skillId",
          "type": "uint32"
        }
      ],
      "name": "deleteSkill",
      "outputs": [],
      "stateMutability": "nonpayable",
      "type": "function"
    },
    {
      "inputs": [
        {
          "internalType": "uint32",
          "name": "_skillId",
          "type": "uint32"
        },
        {
          "internalType": "string",
          "name": "_name",
          "type": "string"
        },
        {
          "internalType": "uint256",
          "name": "_level",
          "type": "uint256"
        }
      ],
      "name": "editSkill",
      "outputs": [],
      "stateMutability": "nonpayable",
      "type": "function"
    },
    {
      "inputs": [
        {
          "internalType": "address",
          "name": "_address",
          "type": "address"
        }
      ],
      "name": "getUserSkillValidations",
      "outputs": [
        {
          "components": [
            {
              "internalType": "address",
              "name": "validatorAddress",
              "type": "address"
            },
            {
              "components": [
                {
                  "internalType": "string",
                  "name": "lastName",
                  "type": "string"
                },
                {
                  "internalType": "string",
                  "name": "firstName",
                  "type": "string"
                }
              ],
              "internalType": "struct SkillTree.Profile",
              "name": "validator",
              "type": "tuple"
            },
            {
              "internalType": "uint32",
              "name": "skillId",
              "type": "uint32"
            }
          ],
          "internalType": "struct SkillTree.SkillValidationDto[]",
          "name": "",
          "type": "tuple[]"
        }
      ],
      "stateMutability": "view",
      "type": "function"
    },
    {
      "inputs": [
        {
          "internalType": "address",
          "name": "_address",
          "type": "address"
        }
      ],
      "name": "getUserSkills",
      "outputs": [
        {
          "components": [
            {
              "internalType": "string",
              "name": "name",
              "type": "string"
            },
            {
              "internalType": "uint256",
              "name": "level",
              "type": "uint256"
            },
            {
              "components": [
                {
                  "internalType": "address",
                  "name": "validatorAddress",
                  "type": "address"
                },
                {
                  "components": [
                    {
                      "internalType": "string",
                      "name": "lastName",
                      "type": "string"
                    },
                    {
                      "internalType": "string",
                      "name": "firstName",
                      "type": "string"
                    }
                  ],
                  "internalType": "struct SkillTree.Profile",
                  "name": "validator",
                  "type": "tuple"
                },
                {
                  "internalType": "uint32",
                  "name": "skillId",
                  "type": "uint32"
                }
              ],
              "internalType": "struct SkillTree.SkillValidationDto[]",
              "name": "validations",
              "type": "tuple[]"
            }
          ],
          "internalType": "struct SkillTree.SkillDto[]",
          "name": "",
          "type": "tuple[]"
        }
      ],
      "stateMutability": "view",
      "type": "function"
    },
    {
      "inputs": [],
      "name": "listUsers",
      "outputs": [
        {
          "internalType": "address[]",
          "name": "",
          "type": "address[]"
        }
      ],
      "stateMutability": "view",
      "type": "function"
    }
  ],
  "bytecode": "0x608060405234801561001057600080fd5b50612cd5806100206000396000f3fe608060405234801561001057600080fd5b50600436106100885760003560e01c8063d2886ebc1161005b578063d2886ebc14610113578063d4819b4c14610143578063d7554a681461015f578063e143dbe91461017b57610088565b806326ab363d1461008d5780638ad257b7146100bd578063a99d0a99146100db578063c9bf7b1a146100f7575b600080fd5b6100a760048036038101906100a29190611cf2565b610197565b6040516100b49190611f33565b60405180910390f35b6100c561051a565b6040516100d29190612004565b60405180910390f35b6100f560048036038101906100f09190612191565b610748565b005b610111600480360381019061010c9190612219565b61083c565b005b61012d60048036038101906101289190611cf2565b610c07565b60405161013a9190612407565b60405180910390f35b61015d60048036038101906101589190612429565b6110cf565b005b61017960048036038101906101749190612456565b6116a3565b005b610195600480360381019061019091906124e1565b61178d565b005b60606000600260008473ffffffffffffffffffffffffffffffffffffffff1673ffffffffffffffffffffffffffffffffffffffff168152602001908152602001600020805480602002602001604051908101604052809291908181526020016000905b828210156102a4578382906000526020600020016040518060400160405290816000820160009054906101000a900473ffffffffffffffffffffffffffffffffffffffff1673ffffffffffffffffffffffffffffffffffffffff1673ffffffffffffffffffffffffffffffffffffffff1681526020016000820160149054906101000a900463ffffffff1663ffffffff1663ffffffff1681525050815260200190600101906101fa565b5050505090506000815167ffffffffffffffff8111156102c7576102c6612030565b5b60405190808252806020026020018201604052801561030057816020015b6102ed611b6f565b8152602001906001900390816102e55790505b50905060005b825181101561050f57600083828151811061032457610323612550565b5b602002602001015190506040518060600160405280826000015173ffffffffffffffffffffffffffffffffffffffff168152602001600080846000015173ffffffffffffffffffffffffffffffffffffffff1673ffffffffffffffffffffffffffffffffffffffff1681526020019081526020016000206040518060400160405290816000820180546103b6906125ae565b80601f01602080910402602001604051908101604052809291908181526020018280546103e2906125ae565b801561042f5780601f106104045761010080835404028352916020019161042f565b820191906000526020600020905b81548152906001019060200180831161041257829003601f168201915b50505050508152602001600182018054610448906125ae565b80601f0160208091040260200160405190810160405280929190818152602001828054610474906125ae565b80156104c15780601f10610496576101008083540402835291602001916104c1565b820191906000526020600020905b8154815290600101906020018083116104a457829003601f168201915b5050505050815250508152602001826020015163ffffffff168152508383815181106104f0576104ef612550565b5b60200260200101819052505080806105079061260e565b915050610306565b508092505050919050565b60606000805b6003805490508110156105c0573373ffffffffffffffffffffffffffffffffffffffff166003828154811061055857610557612550565b5b9060005260206000200160009054906101000a900473ffffffffffffffffffffffffffffffffffffffff1673ffffffffffffffffffffffffffffffffffffffff16146105ad5781806105a99061260e565b9250505b80806105b89061260e565b915050610520565b5060008167ffffffffffffffff8111156105dd576105dc612030565b5b60405190808252806020026020018201604052801561060b5781602001602082028036833780820191505090505b5090506000805b60038054905081101561073e573373ffffffffffffffffffffffffffffffffffffffff166003828154811061064a57610649612550565b5b9060005260206000200160009054906101000a900473ffffffffffffffffffffffffffffffffffffffff1673ffffffffffffffffffffffffffffffffffffffff161461072b57600381815481106106a4576106a3612550565b5b9060005260206000200160009054906101000a900473ffffffffffffffffffffffffffffffffffffffff168383815181106106e2576106e1612550565b5b602002602001019073ffffffffffffffffffffffffffffffffffffffff16908173ffffffffffffffffffffffffffffffffffffffff168152505081806107279061260e565b9250505b80806107369061260e565b915050610612565b5081935050505090565b6001811015801561075a575060058111155b610799576040517f08c379a0000000000000000000000000000000000000000000000000000000008152600401610790906126d9565b60405180910390fd5b600160003373ffffffffffffffffffffffffffffffffffffffff1673ffffffffffffffffffffffffffffffffffffffff1681526020019081526020016000206040518060400160405280848152602001838152509080600181540180825580915050600190039060005260206000209060020201600090919091909150600082015181600001908161082b91906128a5565b506020820151816001015550505050565b8173ffffffffffffffffffffffffffffffffffffffff163373ffffffffffffffffffffffffffffffffffffffff16036108aa576040517f08c379a00000000000000000000000000000000000000000000000000000000081526004016108a1906129e9565b60405180910390fd5b600160008373ffffffffffffffffffffffffffffffffffffffff1673ffffffffffffffffffffffffffffffffffffffff168152602001908152602001600020805490508163ffffffff1610610934576040517f08c379a000000000000000000000000000000000000000000000000000000000815260040161092b90612a55565b60405180910390fd5b60008060003373ffffffffffffffffffffffffffffffffffffffff1673ffffffffffffffffffffffffffffffffffffffff16815260200190815260200160002060405180604001604052908160008201805461098f906125ae565b80601f01602080910402602001604051908101604052809291908181526020018280546109bb906125ae565b8015610a085780601f106109dd57610100808354040283529160200191610a08565b820191906000526020600020905b8154815290600101906020018083116109eb57829003601f168201915b50505050508152602001600182018054610a21906125ae565b80601f0160208091040260200160405190810160405280929190818152602001828054610a4d906125ae565b8015610a9a5780601f10610a6f57610100808354040283529160200191610a9a565b820191906000526020600020905b815481529060010190602001808311610a7d57829003601f168201915b505050505081525050905060008160000151511180610abe57506000816020015151115b610afd576040517f08c379a0000000000000000000000000000000000000000000000000000000008152600401610af490612ac1565b60405180910390fd5b600260008473ffffffffffffffffffffffffffffffffffffffff1673ffffffffffffffffffffffffffffffffffffffff16815260200190815260200160002060405180604001604052803373ffffffffffffffffffffffffffffffffffffffff1681526020018463ffffffff168152509080600181540180825580915050600190039060005260206000200160009091909190915060008201518160000160006101000a81548173ffffffffffffffffffffffffffffffffffffffff021916908373ffffffffffffffffffffffffffffffffffffffff16021790555060208201518160000160146101000a81548163ffffffff021916908363ffffffff1602179055505050505050565b60606000600160008473ffffffffffffffffffffffffffffffffffffffff1673ffffffffffffffffffffffffffffffffffffffff1681526020019081526020016000208054905067ffffffffffffffff811115610c6757610c66612030565b5b604051908082528060200260200182016040528015610ca057816020015b610c8d611bb2565b815260200190600190039081610c855790505b50905060005b600160008573ffffffffffffffffffffffffffffffffffffffff1673ffffffffffffffffffffffffffffffffffffffff168152602001908152602001600020805490508110156110c5576000600160008673ffffffffffffffffffffffffffffffffffffffff1673ffffffffffffffffffffffffffffffffffffffff1681526020019081526020016000208281548110610d4357610d42612550565b5b9060005260206000209060020201604051806040016040529081600082018054610d6c906125ae565b80601f0160208091040260200160405190810160405280929190818152602001828054610d98906125ae565b8015610de55780601f10610dba57610100808354040283529160200191610de5565b820191906000526020600020905b815481529060010190602001808311610dc857829003601f168201915b5050505050815260200160018201548152505090506000610e06868461190a565b90506000815167ffffffffffffffff811115610e2557610e24612030565b5b604051908082528060200260200182016040528015610e5e57816020015b610e4b611b6f565b815260200190600190039081610e435790505b50905060005b825181101561106d576000838281518110610e8257610e81612550565b5b602002602001015190506040518060600160405280826000015173ffffffffffffffffffffffffffffffffffffffff168152602001600080846000015173ffffffffffffffffffffffffffffffffffffffff1673ffffffffffffffffffffffffffffffffffffffff168152602001908152602001600020604051806040016040529081600082018054610f14906125ae565b80601f0160208091040260200160405190810160405280929190818152602001828054610f40906125ae565b8015610f8d5780601f10610f6257610100808354040283529160200191610f8d565b820191906000526020600020905b815481529060010190602001808311610f7057829003601f168201915b50505050508152602001600182018054610fa6906125ae565b80601f0160208091040260200160405190810160405280929190818152602001828054610fd2906125ae565b801561101f5780601f10610ff45761010080835404028352916020019161101f565b820191906000526020600020905b81548152906001019060200180831161100257829003601f168201915b5050505050815250508152602001826020015163ffffffff1681525083838151811061104e5761104d612550565b5b60200260200101819052505080806110659061260e565b915050610e64565b5060405180606001604052808460000151815260200184602001518152602001828152508585815181106110a4576110a3612550565b5b602002602001018190525050505080806110bd9061260e565b915050610ca6565b5080915050919050565b600160003373ffffffffffffffffffffffffffffffffffffffff1673ffffffffffffffffffffffffffffffffffffffff168152602001908152602001600020805490508163ffffffff1610611159576040517f08c379a000000000000000000000000000000000000000000000000000000000815260040161115090612a55565b60405180910390fd5b60008163ffffffff1690505b60018060003373ffffffffffffffffffffffffffffffffffffffff1673ffffffffffffffffffffffffffffffffffffffff168152602001908152602001600020805490506111b39190612ae1565b8110156112b957600160003373ffffffffffffffffffffffffffffffffffffffff1673ffffffffffffffffffffffffffffffffffffffff1681526020019081526020016000206001826112069190612b15565b8154811061121757611216612550565b5b9060005260206000209060020201600160003373ffffffffffffffffffffffffffffffffffffffff1673ffffffffffffffffffffffffffffffffffffffff168152602001908152602001600020828154811061127657611275612550565b5b9060005260206000209060020201600082018160000190816112989190612b5f565b506001820154816001015590505080806112b19061260e565b915050611165565b50600160003373ffffffffffffffffffffffffffffffffffffffff1673ffffffffffffffffffffffffffffffffffffffff16815260200190815260200160002080548061130957611308612c47565b5b60019003818190600052602060002090600202016000808201600061132e9190611bd3565b60018201600090555050905560005b600260003373ffffffffffffffffffffffffffffffffffffffff1673ffffffffffffffffffffffffffffffffffffffff1681526020019081526020016000208054905081101561169f578163ffffffff16600260003373ffffffffffffffffffffffffffffffffffffffff1673ffffffffffffffffffffffffffffffffffffffff16815260200190815260200160002082815481106113df576113de612550565b5b9060005260206000200160000160149054906101000a900463ffffffff1663ffffffff160361168c5760008190505b6001600260003373ffffffffffffffffffffffffffffffffffffffff1673ffffffffffffffffffffffffffffffffffffffff1681526020019081526020016000208054905061145d9190612ae1565b8110156115da57600260003373ffffffffffffffffffffffffffffffffffffffff1673ffffffffffffffffffffffffffffffffffffffff1681526020019081526020016000206001826114b09190612b15565b815481106114c1576114c0612550565b5b90600052602060002001600260003373ffffffffffffffffffffffffffffffffffffffff1673ffffffffffffffffffffffffffffffffffffffff168152602001908152602001600020828154811061151c5761151b612550565b5b906000526020600020016000820160009054906101000a900473ffffffffffffffffffffffffffffffffffffffff168160000160006101000a81548173ffffffffffffffffffffffffffffffffffffffff021916908373ffffffffffffffffffffffffffffffffffffffff1602179055506000820160149054906101000a900463ffffffff168160000160146101000a81548163ffffffff021916908363ffffffff16021790555090505080806115d29061260e565b91505061140e565b50600260003373ffffffffffffffffffffffffffffffffffffffff1673ffffffffffffffffffffffffffffffffffffffff16815260200190815260200160002080548061162a57611629612c47565b5b60019003818190600052602060002001600080820160006101000a81549073ffffffffffffffffffffffffffffffffffffffff02191690556000820160146101000a81549063ffffffff021916905550509055808061168890612c76565b9150505b80806116979061260e565b91505061133d565b5050565b6040518060400160405280828152602001838152506000808573ffffffffffffffffffffffffffffffffffffffff1673ffffffffffffffffffffffffffffffffffffffff168152602001908152602001600020600082015181600001908161170b91906128a5565b50602082015181600101908161172191906128a5565b509050506003839080600181540180825580915050600190039060005260206000200160009091909190916101000a81548173ffffffffffffffffffffffffffffffffffffffff021916908373ffffffffffffffffffffffffffffffffffffffff160217905550505050565b600160003373ffffffffffffffffffffffffffffffffffffffff1673ffffffffffffffffffffffffffffffffffffffff168152602001908152602001600020805490508363ffffffff1610611817576040517f08c379a000000000000000000000000000000000000000000000000000000000815260040161180e90612a55565b60405180910390fd5b60018110158015611829575060058111155b611868576040517f08c379a000000000000000000000000000000000000000000000000000000000815260040161185f906126d9565b60405180910390fd5b604051806040016040528083815260200182815250600160003373ffffffffffffffffffffffffffffffffffffffff1673ffffffffffffffffffffffffffffffffffffffff1681526020019081526020016000208463ffffffff16815481106118d4576118d3612550565b5b906000526020600020906002020160008201518160000190816118f791906128a5565b5060208201518160010155905050505050565b60606000600260008573ffffffffffffffffffffffffffffffffffffffff1673ffffffffffffffffffffffffffffffffffffffff168152602001908152602001600020805480602002602001604051908101604052809291908181526020016000905b82821015611a17578382906000526020600020016040518060400160405290816000820160009054906101000a900473ffffffffffffffffffffffffffffffffffffffff1673ffffffffffffffffffffffffffffffffffffffff1673ffffffffffffffffffffffffffffffffffffffff1681526020016000820160149054906101000a900463ffffffff1663ffffffff1663ffffffff16815250508152602001906001019061196d565b5050505090506000805b8251811015611a83576000838281518110611a3f57611a3e612550565b5b602002602001015190508563ffffffff16816020015163ffffffff1603611a6f578280611a6b9061260e565b9350505b508080611a7b9061260e565b915050611a21565b5060008167ffffffffffffffff811115611aa057611a9f612030565b5b604051908082528060200260200182016040528015611ad957816020015b611ac6611c13565b815260200190600190039081611abe5790505b5090506000805b8451811015611b61576000858281518110611afe57611afd612550565b5b602002602001015190508763ffffffff16816020015163ffffffff1603611b4d5780848481518110611b3357611b32612550565b5b60200260200101819052508280611b499061260e565b9350505b508080611b599061260e565b915050611ae0565b508194505050505092915050565b6040518060600160405280600073ffffffffffffffffffffffffffffffffffffffff168152602001611b9f611c49565b8152602001600063ffffffff1681525090565b60405180606001604052806060815260200160008152602001606081525090565b508054611bdf906125ae565b6000825580601f10611bf15750611c10565b601f016020900490600052602060002090810190611c0f9190611c63565b5b50565b6040518060400160405280600073ffffffffffffffffffffffffffffffffffffffff168152602001600063ffffffff1681525090565b604051806040016040528060608152602001606081525090565b5b80821115611c7c576000816000905550600101611c64565b5090565b6000604051905090565b600080fd5b600080fd5b600073ffffffffffffffffffffffffffffffffffffffff82169050919050565b6000611cbf82611c94565b9050919050565b611ccf81611cb4565b8114611cda57600080fd5b50565b600081359050611cec81611cc6565b92915050565b600060208284031215611d0857611d07611c8a565b5b6000611d1684828501611cdd565b91505092915050565b600081519050919050565b600082825260208201905092915050565b6000819050602082019050919050565b611d5481611cb4565b82525050565b600081519050919050565b600082825260208201905092915050565b60005b83811015611d94578082015181840152602081019050611d79565b60008484015250505050565b6000601f19601f8301169050919050565b6000611dbc82611d5a565b611dc68185611d65565b9350611dd6818560208601611d76565b611ddf81611da0565b840191505092915050565b60006040830160008301518482036000860152611e078282611db1565b91505060208301518482036020860152611e218282611db1565b9150508091505092915050565b600063ffffffff82169050919050565b611e4781611e2e565b82525050565b6000606083016000830151611e656000860182611d4b565b5060208301518482036020860152611e7d8282611dea565b9150506040830151611e926040860182611e3e565b508091505092915050565b6000611ea98383611e4d565b905092915050565b6000602082019050919050565b6000611ec982611d1f565b611ed38185611d2a565b935083602082028501611ee585611d3b565b8060005b85811015611f215784840389528151611f028582611e9d565b9450611f0d83611eb1565b925060208a01995050600181019050611ee9565b50829750879550505050505092915050565b60006020820190508181036000830152611f4d8184611ebe565b905092915050565b600081519050919050565b600082825260208201905092915050565b6000819050602082019050919050565b6000611f8d8383611d4b565b60208301905092915050565b6000602082019050919050565b6000611fb182611f55565b611fbb8185611f60565b9350611fc683611f71565b8060005b83811015611ff7578151611fde8882611f81565b9750611fe983611f99565b925050600181019050611fca565b5085935050505092915050565b6000602082019050818103600083015261201e8184611fa6565b905092915050565b600080fd5b600080fd5b7f4e487b7100000000000000000000000000000000000000000000000000000000600052604160045260246000fd5b61206882611da0565b810181811067ffffffffffffffff8211171561208757612086612030565b5b80604052505050565b600061209a611c80565b90506120a6828261205f565b919050565b600067ffffffffffffffff8211156120c6576120c5612030565b5b6120cf82611da0565b9050602081019050919050565b82818337600083830152505050565b60006120fe6120f9846120ab565b612090565b90508281526020810184848401111561211a5761211961202b565b5b6121258482856120dc565b509392505050565b600082601f83011261214257612141612026565b5b81356121528482602086016120eb565b91505092915050565b6000819050919050565b61216e8161215b565b811461217957600080fd5b50565b60008135905061218b81612165565b92915050565b600080604083850312156121a8576121a7611c8a565b5b600083013567ffffffffffffffff8111156121c6576121c5611c8f565b5b6121d28582860161212d565b92505060206121e38582860161217c565b9150509250929050565b6121f681611e2e565b811461220157600080fd5b50565b600081359050612213816121ed565b92915050565b600080604083850312156122305761222f611c8a565b5b600061223e85828601611cdd565b925050602061224f85828601612204565b9150509250929050565b600081519050919050565b600082825260208201905092915050565b6000819050602082019050919050565b61228e8161215b565b82525050565b600082825260208201905092915050565b60006122b082611d1f565b6122ba8185612294565b9350836020820285016122cc85611d3b565b8060005b8581101561230857848403895281516122e98582611e9d565b94506122f483611eb1565b925060208a019950506001810190506122d0565b50829750879550505050505092915050565b600060608301600083015184820360008601526123378282611db1565b915050602083015161234c6020860182612285565b506040830151848203604086015261236482826122a5565b9150508091505092915050565b600061237d838361231a565b905092915050565b6000602082019050919050565b600061239d82612259565b6123a78185612264565b9350836020820285016123b985612275565b8060005b858110156123f557848403895281516123d68582612371565b94506123e183612385565b925060208a019950506001810190506123bd565b50829750879550505050505092915050565b600060208201905081810360008301526124218184612392565b905092915050565b60006020828403121561243f5761243e611c8a565b5b600061244d84828501612204565b91505092915050565b60008060006060848603121561246f5761246e611c8a565b5b600061247d86828701611cdd565b935050602084013567ffffffffffffffff81111561249e5761249d611c8f565b5b6124aa8682870161212d565b925050604084013567ffffffffffffffff8111156124cb576124ca611c8f565b5b6124d78682870161212d565b9150509250925092565b6000806000606084860312156124fa576124f9611c8a565b5b600061250886828701612204565b935050602084013567ffffffffffffffff81111561252957612528611c8f565b5b6125358682870161212d565b92505060406125468682870161217c565b9150509250925092565b7f4e487b7100000000000000000000000000000000000000000000000000000000600052603260045260246000fd5b7f4e487b7100000000000000000000000000000000000000000000000000000000600052602260045260246000fd5b600060028204905060018216806125c657607f821691505b6020821081036125d9576125d861257f565b5b50919050565b7f4e487b7100000000000000000000000000000000000000000000000000000000600052601160045260246000fd5b60006126198261215b565b91507fffffffffffffffffffffffffffffffffffffffffffffffffffffffffffffffff820361264b5761264a6125df565b5b600182019050919050565b600082825260208201905092915050565b7f536b696c6c206c6576656c206d757374206265206265747765656e203120616e60008201527f6420350000000000000000000000000000000000000000000000000000000000602082015250565b60006126c3602383612656565b91506126ce82612667565b604082019050919050565b600060208201905081810360008301526126f2816126b6565b9050919050565b60008190508160005260206000209050919050565b60006020601f8301049050919050565b600082821b905092915050565b60006008830261275b7fffffffffffffffffffffffffffffffffffffffffffffffffffffffffffffffff8261271e565b612765868361271e565b95508019841693508086168417925050509392505050565b6000819050919050565b60006127a261279d6127988461215b565b61277d565b61215b565b9050919050565b6000819050919050565b6127bc83612787565b6127d06127c8826127a9565b84845461272b565b825550505050565b600090565b6127e56127d8565b6127f08184846127b3565b505050565b5b81811015612814576128096000826127dd565b6001810190506127f6565b5050565b601f8211156128595761282a816126f9565b6128338461270e565b81016020851015612842578190505b61285661284e8561270e565b8301826127f5565b50505b505050565b600082821c905092915050565b600061287c6000198460080261285e565b1980831691505092915050565b6000612895838361286b565b9150826002028217905092915050565b6128ae82611d5a565b67ffffffffffffffff8111156128c7576128c6612030565b5b6128d182546125ae565b6128dc828285612818565b600060209050601f83116001811461290f57600084156128fd578287015190505b6129078582612889565b86555061296f565b601f19841661291d866126f9565b60005b8281101561294557848901518255600182019150602085019450602081019050612920565b86831015612962578489015161295e601f89168261286b565b8355505b6001600288020188555050505b505050505050565b7f596f752063616e6e6f742076616c696461746520796f7572206f776e20736b6960008201527f6c6c730000000000000000000000000000000000000000000000000000000000602082015250565b60006129d3602383612656565b91506129de82612977565b604082019050919050565b60006020820190508181036000830152612a02816129c6565b9050919050565b7f536b696c6c20646f6573206e6f74206578697374000000000000000000000000600082015250565b6000612a3f601483612656565b9150612a4a82612a09565b602082019050919050565b60006020820190508181036000830152612a6e81612a32565b9050919050565b7f56616c696461746f7220646f6573206e6f742065786973740000000000000000600082015250565b6000612aab601883612656565b9150612ab682612a75565b602082019050919050565b60006020820190508181036000830152612ada81612a9e565b9050919050565b6000612aec8261215b565b9150612af78361215b565b9250828203905081811115612b0f57612b0e6125df565b5b92915050565b6000612b208261215b565b9150612b2b8361215b565b9250828201905080821115612b4357612b426125df565b5b92915050565b600081549050612b58816125ae565b9050919050565b818103612b6d575050612c45565b612b7682612b49565b67ffffffffffffffff811115612b8f57612b8e612030565b5b612b9982546125ae565b612ba4828285612818565b6000601f831160018114612bd35760008415612bc1578287015490505b612bcb8582612889565b865550612c3e565b601f198416612be1876126f9565b9650612bec866126f9565b60005b82811015612c1457848901548255600182019150600185019450602081019050612bef565b86831015612c315784890154612c2d601f89168261286b565b8355505b6001600288020188555050505b5050505050505b565b7f4e487b7100000000000000000000000000000000000000000000000000000000600052603160045260246000fd5b6000612c818261215b565b915060008203612c9457612c936125df565b5b60018203905091905056fea26469706673582212208efdcc80b30134d221e2d2dd5df9f44d8ba239e0aced8cdb75a38c0c4a19e29b64736f6c63430008130033",
  "linkReferences": {},
  "deployedLinkReferences": {}
}