{
  "_format": "hh-sol-artifact-1",
  "contractName": "SkillTree",
  "sourceName": "contracts/SkillTree.sol",
  "abi": [
    {
      "inputs": [],
      "stateMutability": "nonpayable",
      "type": "constructor"
    },
    {
      "inputs": [
        {
          "internalType": "string",
          "name": "_name",
          "type": "string"
        },
        {
          "internalType": "uint256",
          "name": "_level",
          "type": "uint256"
        }
      ],
      "name": "addSkill",
      "outputs": [],
      "stateMutability": "nonpayable",
      "type": "function"
    },
    {
      "inputs": [
        {
          "internalType": "address",
          "name": "_address",
          "type": "address"
        }
      ],
      "name": "getUserSkills",
      "outputs": [
        {
          "components": [
            {
              "internalType": "string",
              "name": "name",
              "type": "string"
            },
            {
              "internalType": "uint256",
              "name": "level",
              "type": "uint256"
            }
          ],
          "internalType": "struct SkillTree.Skill[]",
          "name": "",
          "type": "tuple[]"
        }
      ],
      "stateMutability": "view",
      "type": "function"
    }
  ],
  "bytecode": "0x608060405234801561001057600080fd5b50610a92806100206000396000f3fe608060405234801561001057600080fd5b50600436106100365760003560e01c8063a99d0a991461003b578063d2886ebc14610057575b600080fd5b61005560048036038101906100509190610445565b610087565b005b610071600480360381019061006c91906104ff565b61017b565b60405161007e91906106b9565b60405180910390f35b60018110158015610099575060058111155b6100d8576040517f08c379a00000000000000000000000000000000000000000000000000000000081526004016100cf9061075e565b60405180910390fd5b600160003373ffffffffffffffffffffffffffffffffffffffff1673ffffffffffffffffffffffffffffffffffffffff1681526020019081526020016000206040518060400160405280848152602001838152509080600181540180825580915050600190039060005260206000209060020201600090919091909150600082015181600001908161016a919061098a565b506020820151816001015550505050565b6060600160008373ffffffffffffffffffffffffffffffffffffffff1673ffffffffffffffffffffffffffffffffffffffff168152602001908152602001600020805480602002602001604051908101604052809291908181526020016000905b828210156102aa578382906000526020600020906002020160405180604001604052908160008201805461020f906107ad565b80601f016020809104026020016040519081016040528092919081815260200182805461023b906107ad565b80156102885780601f1061025d57610100808354040283529160200191610288565b820191906000526020600020905b81548152906001019060200180831161026b57829003601f168201915b50505050508152602001600182015481525050815260200190600101906101dc565b505050509050919050565b6000604051905090565b600080fd5b600080fd5b600080fd5b600080fd5b6000601f19601f8301169050919050565b7f4e487b7100000000000000000000000000000000000000000000000000000000600052604160045260246000fd5b61031c826102d3565b810181811067ffffffffffffffff8211171561033b5761033a6102e4565b5b80604052505050565b600061034e6102b5565b905061035a8282610313565b919050565b600067ffffffffffffffff82111561037a576103796102e4565b5b610383826102d3565b9050602081019050919050565b82818337600083830152505050565b60006103b26103ad8461035f565b610344565b9050828152602081018484840111156103ce576103cd6102ce565b5b6103d9848285610390565b509392505050565b600082601f8301126103f6576103f56102c9565b5b813561040684826020860161039f565b91505092915050565b6000819050919050565b6104228161040f565b811461042d57600080fd5b50565b60008135905061043f81610419565b92915050565b6000806040838503121561045c5761045b6102bf565b5b600083013567ffffffffffffffff81111561047a576104796102c4565b5b610486858286016103e1565b925050602061049785828601610430565b9150509250929050565b600073ffffffffffffffffffffffffffffffffffffffff82169050919050565b60006104cc826104a1565b9050919050565b6104dc816104c1565b81146104e757600080fd5b50565b6000813590506104f9816104d3565b92915050565b600060208284031215610515576105146102bf565b5b6000610523848285016104ea565b91505092915050565b600081519050919050565b600082825260208201905092915050565b6000819050602082019050919050565b600081519050919050565b600082825260208201905092915050565b60005b83811015610592578082015181840152602081019050610577565b60008484015250505050565b60006105a982610558565b6105b38185610563565b93506105c3818560208601610574565b6105cc816102d3565b840191505092915050565b6105e08161040f565b82525050565b60006040830160008301518482036000860152610603828261059e565b915050602083015161061860208601826105d7565b508091505092915050565b600061062f83836105e6565b905092915050565b6000602082019050919050565b600061064f8261052c565b6106598185610537565b93508360208202850161066b85610548565b8060005b858110156106a757848403895281516106888582610623565b945061069383610637565b925060208a0199505060018101905061066f565b50829750879550505050505092915050565b600060208201905081810360008301526106d38184610644565b905092915050565b600082825260208201905092915050565b7f536b696c6c206c6576656c206d757374206265206265747765656e203120616e60008201527f6420350000000000000000000000000000000000000000000000000000000000602082015250565b60006107486023836106db565b9150610753826106ec565b604082019050919050565b600060208201905081810360008301526107778161073b565b9050919050565b7f4e487b7100000000000000000000000000000000000000000000000000000000600052602260045260246000fd5b600060028204905060018216806107c557607f821691505b6020821081036107d8576107d761077e565b5b50919050565b60008190508160005260206000209050919050565b60006020601f8301049050919050565b600082821b905092915050565b6000600883026108407fffffffffffffffffffffffffffffffffffffffffffffffffffffffffffffffff82610803565b61084a8683610803565b95508019841693508086168417925050509392505050565b6000819050919050565b600061088761088261087d8461040f565b610862565b61040f565b9050919050565b6000819050919050565b6108a18361086c565b6108b56108ad8261088e565b848454610810565b825550505050565b600090565b6108ca6108bd565b6108d5818484610898565b505050565b5b818110156108f9576108ee6000826108c2565b6001810190506108db565b5050565b601f82111561093e5761090f816107de565b610918846107f3565b81016020851015610927578190505b61093b610933856107f3565b8301826108da565b50505b505050565b600082821c905092915050565b600061096160001984600802610943565b1980831691505092915050565b600061097a8383610950565b9150826002028217905092915050565b61099382610558565b67ffffffffffffffff8111156109ac576109ab6102e4565b5b6109b682546107ad565b6109c18282856108fd565b600060209050601f8311600181146109f457600084156109e2578287015190505b6109ec858261096e565b865550610a54565b601f198416610a02866107de565b60005b82811015610a2a57848901518255600182019150602085019450602081019050610a05565b86831015610a475784890151610a43601f891682610950565b8355505b6001600288020188555050505b50505050505056fea26469706673582212203f15de01b5a99d22ac89b8181aeaa3917e2fa1cdd7fb05b493bddebd0e80cd2564736f6c63430008130033",
  "linkReferences": {},
  "deployedLinkReferences": {}
}