{
  "_format": "hh-sol-artifact-1",
  "contractName": "SkillTree",
  "sourceName": "contracts/SkillTree.sol",
  "abi": [
    {
      "inputs": [],
      "stateMutability": "nonpayable",
      "type": "constructor"
    },
    {
      "inputs": [
        {
          "internalType": "string",
          "name": "_name",
          "type": "string"
        },
        {
          "internalType": "uint256",
          "name": "_level",
          "type": "uint256"
        }
      ],
      "name": "addSkill",
      "outputs": [],
      "stateMutability": "nonpayable",
      "type": "function"
    },
    {
      "inputs": [
        {
          "internalType": "address",
          "name": "_userAddress",
          "type": "address"
        },
        {
          "internalType": "uint32",
          "name": "_skillId",
          "type": "uint32"
        }
      ],
      "name": "addSkillValidation",
      "outputs": [],
      "stateMutability": "nonpayable",
      "type": "function"
    },
    {
      "inputs": [
        {
          "internalType": "address",
          "name": "_userAddress",
          "type": "address"
        },
        {
          "internalType": "string",
          "name": "_firstName",
          "type": "string"
        },
        {
          "internalType": "string",
          "name": "_lastName",
          "type": "string"
        }
      ],
      "name": "addUser",
      "outputs": [],
      "stateMutability": "nonpayable",
      "type": "function"
    },
    {
      "inputs": [
        {
          "internalType": "uint32",
          "name": "_skillId",
          "type": "uint32"
        }
      ],
      "name": "deleteSkill",
      "outputs": [],
      "stateMutability": "nonpayable",
      "type": "function"
    },
    {
      "inputs": [
        {
          "internalType": "string",
          "name": "_lastName",
          "type": "string"
        },
        {
          "internalType": "string",
          "name": "_firstName",
          "type": "string"
        }
      ],
      "name": "editProfile",
      "outputs": [],
      "stateMutability": "nonpayable",
      "type": "function"
    },
    {
      "inputs": [
        {
          "internalType": "uint32",
          "name": "_skillId",
          "type": "uint32"
        },
        {
          "internalType": "string",
          "name": "_name",
          "type": "string"
        },
        {
          "internalType": "uint256",
          "name": "_level",
          "type": "uint256"
        }
      ],
      "name": "editSkill",
      "outputs": [],
      "stateMutability": "nonpayable",
      "type": "function"
    },
    {
      "inputs": [
        {
          "internalType": "address",
          "name": "_address",
          "type": "address"
        }
      ],
      "name": "getProfile",
      "outputs": [
        {
          "components": [
            {
              "internalType": "address",
              "name": "userAddress",
              "type": "address"
            },
            {
              "internalType": "string",
              "name": "lastName",
              "type": "string"
            },
            {
              "internalType": "string",
              "name": "firstName",
              "type": "string"
            },
            {
              "components": [
                {
                  "internalType": "string",
                  "name": "name",
                  "type": "string"
                },
                {
                  "internalType": "uint256",
                  "name": "level",
                  "type": "uint256"
                },
                {
                  "components": [
                    {
                      "internalType": "address",
                      "name": "validatorAddress",
                      "type": "address"
                    },
                    {
                      "components": [
                        {
                          "internalType": "string",
                          "name": "lastName",
                          "type": "string"
                        },
                        {
                          "internalType": "string",
                          "name": "firstName",
                          "type": "string"
                        }
                      ],
                      "internalType": "struct SkillTree.Profile",
                      "name": "validator",
                      "type": "tuple"
                    },
                    {
                      "internalType": "uint32",
                      "name": "skillId",
                      "type": "uint32"
                    }
                  ],
                  "internalType": "struct SkillTree.SkillValidationDto[]",
                  "name": "validations",
                  "type": "tuple[]"
                }
              ],
              "internalType": "struct SkillTree.SkillDto[]",
              "name": "skills",
              "type": "tuple[]"
            }
          ],
          "internalType": "struct SkillTree.ProfileDto",
          "name": "",
          "type": "tuple"
        }
      ],
      "stateMutability": "view",
      "type": "function"
    },
    {
      "inputs": [
        {
          "internalType": "address",
          "name": "_address",
          "type": "address"
        }
      ],
      "name": "getUserSkillValidations",
      "outputs": [
        {
          "components": [
            {
              "internalType": "address",
              "name": "validatorAddress",
              "type": "address"
            },
            {
              "components": [
                {
                  "internalType": "string",
                  "name": "lastName",
                  "type": "string"
                },
                {
                  "internalType": "string",
                  "name": "firstName",
                  "type": "string"
                }
              ],
              "internalType": "struct SkillTree.Profile",
              "name": "validator",
              "type": "tuple"
            },
            {
              "internalType": "uint32",
              "name": "skillId",
              "type": "uint32"
            }
          ],
          "internalType": "struct SkillTree.SkillValidationDto[]",
          "name": "",
          "type": "tuple[]"
        }
      ],
      "stateMutability": "view",
      "type": "function"
    },
    {
      "inputs": [
        {
          "internalType": "address",
          "name": "_address",
          "type": "address"
        }
      ],
      "name": "getUserSkills",
      "outputs": [
        {
          "components": [
            {
              "internalType": "string",
              "name": "name",
              "type": "string"
            },
            {
              "internalType": "uint256",
              "name": "level",
              "type": "uint256"
            },
            {
              "components": [
                {
                  "internalType": "address",
                  "name": "validatorAddress",
                  "type": "address"
                },
                {
                  "components": [
                    {
                      "internalType": "string",
                      "name": "lastName",
                      "type": "string"
                    },
                    {
                      "internalType": "string",
                      "name": "firstName",
                      "type": "string"
                    }
                  ],
                  "internalType": "struct SkillTree.Profile",
                  "name": "validator",
                  "type": "tuple"
                },
                {
                  "internalType": "uint32",
                  "name": "skillId",
                  "type": "uint32"
                }
              ],
              "internalType": "struct SkillTree.SkillValidationDto[]",
              "name": "validations",
              "type": "tuple[]"
            }
          ],
          "internalType": "struct SkillTree.SkillDto[]",
          "name": "",
          "type": "tuple[]"
        }
      ],
      "stateMutability": "view",
      "type": "function"
    },
    {
      "inputs": [],
      "name": "listProfiles",
      "outputs": [
        {
          "components": [
            {
              "internalType": "address",
              "name": "userAddress",
              "type": "address"
            },
            {
              "internalType": "string",
              "name": "lastName",
              "type": "string"
            },
            {
              "internalType": "string",
              "name": "firstName",
              "type": "string"
            },
            {
              "components": [
                {
                  "internalType": "string",
                  "name": "name",
                  "type": "string"
                },
                {
                  "internalType": "uint256",
                  "name": "level",
                  "type": "uint256"
                },
                {
                  "components": [
                    {
                      "internalType": "address",
                      "name": "validatorAddress",
                      "type": "address"
                    },
                    {
                      "components": [
                        {
                          "internalType": "string",
                          "name": "lastName",
                          "type": "string"
                        },
                        {
                          "internalType": "string",
                          "name": "firstName",
                          "type": "string"
                        }
                      ],
                      "internalType": "struct SkillTree.Profile",
                      "name": "validator",
                      "type": "tuple"
                    },
                    {
                      "internalType": "uint32",
                      "name": "skillId",
                      "type": "uint32"
                    }
                  ],
                  "internalType": "struct SkillTree.SkillValidationDto[]",
                  "name": "validations",
                  "type": "tuple[]"
                }
              ],
              "internalType": "struct SkillTree.SkillDto[]",
              "name": "skills",
              "type": "tuple[]"
            }
          ],
          "internalType": "struct SkillTree.ProfileDto[]",
          "name": "",
          "type": "tuple[]"
        }
      ],
      "stateMutability": "view",
      "type": "function"
    },
    {
      "inputs": [],
      "name": "listUsers",
      "outputs": [
        {
          "internalType": "address[]",
          "name": "",
          "type": "address[]"
        }
      ],
      "stateMutability": "view",
      "type": "function"
    }
  ],
  "bytecode": "0x608060405234801561001057600080fd5b50613880806100206000396000f3fe608060405234801561001057600080fd5b50600436106100a95760003560e01c8063aecd0c3111610071578063aecd0c3114610164578063c9bf7b1a14610182578063d2886ebc1461019e578063d4819b4c146101ce578063d7554a68146101ea578063e143dbe914610206576100a9565b80630f53a470146100ae57806326ab363d146100de578063835553351461010e5780638ad257b71461012a578063a99d0a9914610148575b600080fd5b6100c860048036038101906100c391906124df565b610222565b6040516100d591906128c3565b60405180910390f35b6100f860048036038101906100f391906124df565b610442565b604051610105919061296b565b60405180910390f35b61012860048036038101906101239190612ac2565b6107c5565b005b610132610a15565b60405161013f9190612be9565b60405180910390f35b610162600480360381019061015d9190612c37565b610c43565b005b61016c610d37565b6040516101799190612dc6565b60405180910390f35b61019c60048036038101906101979190612e14565b610feb565b005b6101b860048036038101906101b391906124df565b6113b6565b6040516101c59190612eda565b60405180910390f35b6101e860048036038101906101e39190612efc565b61187e565b005b61020460048036038101906101ff9190612f29565b611e52565b005b610220600480360381019061021b9190612fb4565b611f3c565b005b61022a61231e565b60008060008473ffffffffffffffffffffffffffffffffffffffff1673ffffffffffffffffffffffffffffffffffffffff16815260200190815260200160002060405180604001604052908160008201805461028590613052565b80601f01602080910402602001604051908101604052809291908181526020018280546102b190613052565b80156102fe5780601f106102d3576101008083540402835291602001916102fe565b820191906000526020600020905b8154815290600101906020018083116102e157829003601f168201915b5050505050815260200160018201805461031790613052565b80601f016020809104026020016040519081016040528092919081815260200182805461034390613052565b80156103905780601f1061036557610100808354040283529160200191610390565b820191906000526020600020905b81548152906001019060200180831161037357829003601f168201915b5050505050815250509050600081600001515111806103b457506000816020015151115b6103f3576040517f08c379a00000000000000000000000000000000000000000000000000000000081526004016103ea906130e0565b60405180910390fd5b60405180608001604052808473ffffffffffffffffffffffffffffffffffffffff1681526020018260000151815260200182602001518152602001610437856113b6565b815250915050919050565b60606000600260008473ffffffffffffffffffffffffffffffffffffffff1673ffffffffffffffffffffffffffffffffffffffff168152602001908152602001600020805480602002602001604051908101604052809291908181526020016000905b8282101561054f578382906000526020600020016040518060400160405290816000820160009054906101000a900473ffffffffffffffffffffffffffffffffffffffff1673ffffffffffffffffffffffffffffffffffffffff1673ffffffffffffffffffffffffffffffffffffffff1681526020016000820160149054906101000a900463ffffffff1663ffffffff1663ffffffff1681525050815260200190600101906104a5565b5050505090506000815167ffffffffffffffff81111561057257610571612997565b5b6040519080825280602002602001820160405280156105ab57816020015b61059861235c565b8152602001906001900390816105905790505b50905060005b82518110156107ba5760008382815181106105cf576105ce613100565b5b602002602001015190506040518060600160405280826000015173ffffffffffffffffffffffffffffffffffffffff168152602001600080846000015173ffffffffffffffffffffffffffffffffffffffff1673ffffffffffffffffffffffffffffffffffffffff16815260200190815260200160002060405180604001604052908160008201805461066190613052565b80601f016020809104026020016040519081016040528092919081815260200182805461068d90613052565b80156106da5780601f106106af576101008083540402835291602001916106da565b820191906000526020600020905b8154815290600101906020018083116106bd57829003601f168201915b505050505081526020016001820180546106f390613052565b80601f016020809104026020016040519081016040528092919081815260200182805461071f90613052565b801561076c5780601f106107415761010080835404028352916020019161076c565b820191906000526020600020905b81548152906001019060200180831161074f57829003601f168201915b5050505050815250508152602001826020015163ffffffff1681525083838151811061079b5761079a613100565b5b60200260200101819052505080806107b29061315e565b9150506105b1565b508092505050919050565b60008060003373ffffffffffffffffffffffffffffffffffffffff1673ffffffffffffffffffffffffffffffffffffffff16815260200190815260200160002060405180604001604052908160008201805461082090613052565b80601f016020809104026020016040519081016040528092919081815260200182805461084c90613052565b80156108995780601f1061086e57610100808354040283529160200191610899565b820191906000526020600020905b81548152906001019060200180831161087c57829003601f168201915b505050505081526020016001820180546108b290613052565b80601f01602080910402602001604051908101604052809291908181526020018280546108de90613052565b801561092b5780601f106109005761010080835404028352916020019161092b565b820191906000526020600020905b81548152906001019060200180831161090e57829003601f168201915b50505050508152505090506000816000015151118061094f57506000816020015151115b61098e576040517f08c379a0000000000000000000000000000000000000000000000000000000008152600401610985906131f2565b60405180910390fd5b6040518060400160405280848152602001838152506000803373ffffffffffffffffffffffffffffffffffffffff1673ffffffffffffffffffffffffffffffffffffffff16815260200190815260200160002060008201518160000190816109f691906133be565b506020820151816001019081610a0c91906133be565b50905050505050565b60606000805b600380549050811015610abb573373ffffffffffffffffffffffffffffffffffffffff1660038281548110610a5357610a52613100565b5b9060005260206000200160009054906101000a900473ffffffffffffffffffffffffffffffffffffffff1673ffffffffffffffffffffffffffffffffffffffff1614610aa8578180610aa49061315e565b9250505b8080610ab39061315e565b915050610a1b565b5060008167ffffffffffffffff811115610ad857610ad7612997565b5b604051908082528060200260200182016040528015610b065781602001602082028036833780820191505090505b5090506000805b600380549050811015610c39573373ffffffffffffffffffffffffffffffffffffffff1660038281548110610b4557610b44613100565b5b9060005260206000200160009054906101000a900473ffffffffffffffffffffffffffffffffffffffff1673ffffffffffffffffffffffffffffffffffffffff1614610c265760038181548110610b9f57610b9e613100565b5b9060005260206000200160009054906101000a900473ffffffffffffffffffffffffffffffffffffffff16838381518110610bdd57610bdc613100565b5b602002602001019073ffffffffffffffffffffffffffffffffffffffff16908173ffffffffffffffffffffffffffffffffffffffff16815250508180610c229061315e565b9250505b8080610c319061315e565b915050610b0d565b5081935050505090565b60018110158015610c55575060058111155b610c94576040517f08c379a0000000000000000000000000000000000000000000000000000000008152600401610c8b90613502565b60405180910390fd5b600160003373ffffffffffffffffffffffffffffffffffffffff1673ffffffffffffffffffffffffffffffffffffffff16815260200190815260200160002060405180604001604052808481526020018381525090806001815401808255809150506001900390600052602060002090600202016000909190919091506000820151816000019081610d2691906133be565b506020820151816001015550505050565b60606000610d43610a15565b90506000815167ffffffffffffffff811115610d6257610d61612997565b5b604051908082528060200260200182016040528015610d9b57816020015b610d8861231e565b815260200190600190039081610d805790505b50905060005b8251811015610fe2576000806000858481518110610dc257610dc1613100565b5b602002602001015173ffffffffffffffffffffffffffffffffffffffff1673ffffffffffffffffffffffffffffffffffffffff168152602001908152602001600020604051806040016040529081600082018054610e1f90613052565b80601f0160208091040260200160405190810160405280929190818152602001828054610e4b90613052565b8015610e985780601f10610e6d57610100808354040283529160200191610e98565b820191906000526020600020905b815481529060010190602001808311610e7b57829003601f168201915b50505050508152602001600182018054610eb190613052565b80601f0160208091040260200160405190810160405280929190818152602001828054610edd90613052565b8015610f2a5780601f10610eff57610100808354040283529160200191610f2a565b820191906000526020600020905b815481529060010190602001808311610f0d57829003601f168201915b50505050508152505090506040518060800160405280858481518110610f5357610f52613100565b5b602002602001015173ffffffffffffffffffffffffffffffffffffffff1681526020018260000151815260200182602001518152602001610fad868581518110610fa057610f9f613100565b5b60200260200101516113b6565b815250838381518110610fc357610fc2613100565b5b6020026020010181905250508080610fda9061315e565b915050610da1565b50809250505090565b8173ffffffffffffffffffffffffffffffffffffffff163373ffffffffffffffffffffffffffffffffffffffff1603611059576040517f08c379a000000000000000000000000000000000000000000000000000000000815260040161105090613594565b60405180910390fd5b600160008373ffffffffffffffffffffffffffffffffffffffff1673ffffffffffffffffffffffffffffffffffffffff168152602001908152602001600020805490508163ffffffff16106110e3576040517f08c379a00000000000000000000000000000000000000000000000000000000081526004016110da90613600565b60405180910390fd5b60008060003373ffffffffffffffffffffffffffffffffffffffff1673ffffffffffffffffffffffffffffffffffffffff16815260200190815260200160002060405180604001604052908160008201805461113e90613052565b80601f016020809104026020016040519081016040528092919081815260200182805461116a90613052565b80156111b75780601f1061118c576101008083540402835291602001916111b7565b820191906000526020600020905b81548152906001019060200180831161119a57829003601f168201915b505050505081526020016001820180546111d090613052565b80601f01602080910402602001604051908101604052809291908181526020018280546111fc90613052565b80156112495780601f1061121e57610100808354040283529160200191611249565b820191906000526020600020905b81548152906001019060200180831161122c57829003601f168201915b50505050508152505090506000816000015151118061126d57506000816020015151115b6112ac576040517f08c379a00000000000000000000000000000000000000000000000000000000081526004016112a39061366c565b60405180910390fd5b600260008473ffffffffffffffffffffffffffffffffffffffff1673ffffffffffffffffffffffffffffffffffffffff16815260200190815260200160002060405180604001604052803373ffffffffffffffffffffffffffffffffffffffff1681526020018463ffffffff168152509080600181540180825580915050600190039060005260206000200160009091909190915060008201518160000160006101000a81548173ffffffffffffffffffffffffffffffffffffffff021916908373ffffffffffffffffffffffffffffffffffffffff16021790555060208201518160000160146101000a81548163ffffffff021916908363ffffffff1602179055505050505050565b60606000600160008473ffffffffffffffffffffffffffffffffffffffff1673ffffffffffffffffffffffffffffffffffffffff1681526020019081526020016000208054905067ffffffffffffffff81111561141657611415612997565b5b60405190808252806020026020018201604052801561144f57816020015b61143c61239f565b8152602001906001900390816114345790505b50905060005b600160008573ffffffffffffffffffffffffffffffffffffffff1673ffffffffffffffffffffffffffffffffffffffff16815260200190815260200160002080549050811015611874576000600160008673ffffffffffffffffffffffffffffffffffffffff1673ffffffffffffffffffffffffffffffffffffffff16815260200190815260200160002082815481106114f2576114f1613100565b5b906000526020600020906002020160405180604001604052908160008201805461151b90613052565b80601f016020809104026020016040519081016040528092919081815260200182805461154790613052565b80156115945780601f1061156957610100808354040283529160200191611594565b820191906000526020600020905b81548152906001019060200180831161157757829003601f168201915b50505050508152602001600182015481525050905060006115b586846120b9565b90506000815167ffffffffffffffff8111156115d4576115d3612997565b5b60405190808252806020026020018201604052801561160d57816020015b6115fa61235c565b8152602001906001900390816115f25790505b50905060005b825181101561181c57600083828151811061163157611630613100565b5b602002602001015190506040518060600160405280826000015173ffffffffffffffffffffffffffffffffffffffff168152602001600080846000015173ffffffffffffffffffffffffffffffffffffffff1673ffffffffffffffffffffffffffffffffffffffff1681526020019081526020016000206040518060400160405290816000820180546116c390613052565b80601f01602080910402602001604051908101604052809291908181526020018280546116ef90613052565b801561173c5780601f106117115761010080835404028352916020019161173c565b820191906000526020600020905b81548152906001019060200180831161171f57829003601f168201915b5050505050815260200160018201805461175590613052565b80601f016020809104026020016040519081016040528092919081815260200182805461178190613052565b80156117ce5780601f106117a3576101008083540402835291602001916117ce565b820191906000526020600020905b8154815290600101906020018083116117b157829003601f168201915b5050505050815250508152602001826020015163ffffffff168152508383815181106117fd576117fc613100565b5b60200260200101819052505080806118149061315e565b915050611613565b50604051806060016040528084600001518152602001846020015181526020018281525085858151811061185357611852613100565b5b6020026020010181905250505050808061186c9061315e565b915050611455565b5080915050919050565b600160003373ffffffffffffffffffffffffffffffffffffffff1673ffffffffffffffffffffffffffffffffffffffff168152602001908152602001600020805490508163ffffffff1610611908576040517f08c379a00000000000000000000000000000000000000000000000000000000081526004016118ff90613600565b60405180910390fd5b60008163ffffffff1690505b60018060003373ffffffffffffffffffffffffffffffffffffffff1673ffffffffffffffffffffffffffffffffffffffff16815260200190815260200160002080549050611962919061368c565b811015611a6857600160003373ffffffffffffffffffffffffffffffffffffffff1673ffffffffffffffffffffffffffffffffffffffff1681526020019081526020016000206001826119b591906136c0565b815481106119c6576119c5613100565b5b9060005260206000209060020201600160003373ffffffffffffffffffffffffffffffffffffffff1673ffffffffffffffffffffffffffffffffffffffff1681526020019081526020016000208281548110611a2557611a24613100565b5b906000526020600020906002020160008201816000019081611a47919061370a565b50600182015481600101559050508080611a609061315e565b915050611914565b50600160003373ffffffffffffffffffffffffffffffffffffffff1673ffffffffffffffffffffffffffffffffffffffff168152602001908152602001600020805480611ab857611ab76137f2565b5b600190038181906000526020600020906002020160008082016000611add91906123c0565b60018201600090555050905560005b600260003373ffffffffffffffffffffffffffffffffffffffff1673ffffffffffffffffffffffffffffffffffffffff16815260200190815260200160002080549050811015611e4e578163ffffffff16600260003373ffffffffffffffffffffffffffffffffffffffff1673ffffffffffffffffffffffffffffffffffffffff1681526020019081526020016000208281548110611b8e57611b8d613100565b5b9060005260206000200160000160149054906101000a900463ffffffff1663ffffffff1603611e3b5760008190505b6001600260003373ffffffffffffffffffffffffffffffffffffffff1673ffffffffffffffffffffffffffffffffffffffff16815260200190815260200160002080549050611c0c919061368c565b811015611d8957600260003373ffffffffffffffffffffffffffffffffffffffff1673ffffffffffffffffffffffffffffffffffffffff168152602001908152602001600020600182611c5f91906136c0565b81548110611c7057611c6f613100565b5b90600052602060002001600260003373ffffffffffffffffffffffffffffffffffffffff1673ffffffffffffffffffffffffffffffffffffffff1681526020019081526020016000208281548110611ccb57611cca613100565b5b906000526020600020016000820160009054906101000a900473ffffffffffffffffffffffffffffffffffffffff168160000160006101000a81548173ffffffffffffffffffffffffffffffffffffffff021916908373ffffffffffffffffffffffffffffffffffffffff1602179055506000820160149054906101000a900463ffffffff168160000160146101000a81548163ffffffff021916908363ffffffff1602179055509050508080611d819061315e565b915050611bbd565b50600260003373ffffffffffffffffffffffffffffffffffffffff1673ffffffffffffffffffffffffffffffffffffffff168152602001908152602001600020805480611dd957611dd86137f2565b5b60019003818190600052602060002001600080820160006101000a81549073ffffffffffffffffffffffffffffffffffffffff02191690556000820160146101000a81549063ffffffff0219169055505090558080611e3790613821565b9150505b8080611e469061315e565b915050611aec565b5050565b6040518060400160405280828152602001838152506000808573ffffffffffffffffffffffffffffffffffffffff1673ffffffffffffffffffffffffffffffffffffffff1681526020019081526020016000206000820151816000019081611eba91906133be565b506020820151816001019081611ed091906133be565b509050506003839080600181540180825580915050600190039060005260206000200160009091909190916101000a81548173ffffffffffffffffffffffffffffffffffffffff021916908373ffffffffffffffffffffffffffffffffffffffff160217905550505050565b600160003373ffffffffffffffffffffffffffffffffffffffff1673ffffffffffffffffffffffffffffffffffffffff168152602001908152602001600020805490508363ffffffff1610611fc6576040517f08c379a0000000000000000000000000000000000000000000000000000000008152600401611fbd90613600565b60405180910390fd5b60018110158015611fd8575060058111155b612017576040517f08c379a000000000000000000000000000000000000000000000000000000000815260040161200e90613502565b60405180910390fd5b604051806040016040528083815260200182815250600160003373ffffffffffffffffffffffffffffffffffffffff1673ffffffffffffffffffffffffffffffffffffffff1681526020019081526020016000208463ffffffff168154811061208357612082613100565b5b906000526020600020906002020160008201518160000190816120a691906133be565b5060208201518160010155905050505050565b60606000600260008573ffffffffffffffffffffffffffffffffffffffff1673ffffffffffffffffffffffffffffffffffffffff168152602001908152602001600020805480602002602001604051908101604052809291908181526020016000905b828210156121c6578382906000526020600020016040518060400160405290816000820160009054906101000a900473ffffffffffffffffffffffffffffffffffffffff1673ffffffffffffffffffffffffffffffffffffffff1673ffffffffffffffffffffffffffffffffffffffff1681526020016000820160149054906101000a900463ffffffff1663ffffffff1663ffffffff16815250508152602001906001019061211c565b5050505090506000805b82518110156122325760008382815181106121ee576121ed613100565b5b602002602001015190508563ffffffff16816020015163ffffffff160361221e57828061221a9061315e565b9350505b50808061222a9061315e565b9150506121d0565b5060008167ffffffffffffffff81111561224f5761224e612997565b5b60405190808252806020026020018201604052801561228857816020015b612275612400565b81526020019060019003908161226d5790505b5090506000805b84518110156123105760008582815181106122ad576122ac613100565b5b602002602001015190508763ffffffff16816020015163ffffffff16036122fc57808484815181106122e2576122e1613100565b5b602002602001018190525082806122f89061315e565b9350505b5080806123089061315e565b91505061228f565b508194505050505092915050565b6040518060800160405280600073ffffffffffffffffffffffffffffffffffffffff1681526020016060815260200160608152602001606081525090565b6040518060600160405280600073ffffffffffffffffffffffffffffffffffffffff16815260200161238c612436565b8152602001600063ffffffff1681525090565b60405180606001604052806060815260200160008152602001606081525090565b5080546123cc90613052565b6000825580601f106123de57506123fd565b601f0160209004906000526020600020908101906123fc9190612450565b5b50565b6040518060400160405280600073ffffffffffffffffffffffffffffffffffffffff168152602001600063ffffffff1681525090565b604051806040016040528060608152602001606081525090565b5b80821115612469576000816000905550600101612451565b5090565b6000604051905090565b600080fd5b600080fd5b600073ffffffffffffffffffffffffffffffffffffffff82169050919050565b60006124ac82612481565b9050919050565b6124bc816124a1565b81146124c757600080fd5b50565b6000813590506124d9816124b3565b92915050565b6000602082840312156124f5576124f4612477565b5b6000612503848285016124ca565b91505092915050565b612515816124a1565b82525050565b600081519050919050565b600082825260208201905092915050565b60005b8381101561255557808201518184015260208101905061253a565b60008484015250505050565b6000601f19601f8301169050919050565b600061257d8261251b565b6125878185612526565b9350612597818560208601612537565b6125a081612561565b840191505092915050565b600081519050919050565b600082825260208201905092915050565b6000819050602082019050919050565b6000819050919050565b6125ea816125d7565b82525050565b600081519050919050565b600082825260208201905092915050565b6000819050602082019050919050565b600060408301600083015184820360008601526126398282612572565b915050602083015184820360208601526126538282612572565b9150508091505092915050565b600063ffffffff82169050919050565b61267981612660565b82525050565b6000606083016000830151612697600086018261250c565b50602083015184820360208601526126af828261261c565b91505060408301516126c46040860182612670565b508091505092915050565b60006126db838361267f565b905092915050565b6000602082019050919050565b60006126fb826125f0565b61270581856125fb565b9350836020820285016127178561260c565b8060005b85811015612753578484038952815161273485826126cf565b945061273f836126e3565b925060208a0199505060018101905061271b565b50829750879550505050505092915050565b600060608301600083015184820360008601526127828282612572565b915050602083015161279760208601826125e1565b50604083015184820360408601526127af82826126f0565b9150508091505092915050565b60006127c88383612765565b905092915050565b6000602082019050919050565b60006127e8826125ab565b6127f281856125b6565b935083602082028501612804856125c7565b8060005b85811015612840578484038952815161282185826127bc565b945061282c836127d0565b925060208a01995050600181019050612808565b50829750879550505050505092915050565b600060808301600083015161286a600086018261250c565b50602083015184820360208601526128828282612572565b9150506040830151848203604086015261289c8282612572565b915050606083015184820360608601526128b682826127dd565b9150508091505092915050565b600060208201905081810360008301526128dd8184612852565b905092915050565b600082825260208201905092915050565b6000612901826125f0565b61290b81856128e5565b93508360208202850161291d8561260c565b8060005b85811015612959578484038952815161293a85826126cf565b9450612945836126e3565b925060208a01995050600181019050612921565b50829750879550505050505092915050565b6000602082019050818103600083015261298581846128f6565b905092915050565b600080fd5b600080fd5b7f4e487b7100000000000000000000000000000000000000000000000000000000600052604160045260246000fd5b6129cf82612561565b810181811067ffffffffffffffff821117156129ee576129ed612997565b5b80604052505050565b6000612a0161246d565b9050612a0d82826129c6565b919050565b600067ffffffffffffffff821115612a2d57612a2c612997565b5b612a3682612561565b9050602081019050919050565b82818337600083830152505050565b6000612a65612a6084612a12565b6129f7565b905082815260208101848484011115612a8157612a80612992565b5b612a8c848285612a43565b509392505050565b600082601f830112612aa957612aa861298d565b5b8135612ab9848260208601612a52565b91505092915050565b60008060408385031215612ad957612ad8612477565b5b600083013567ffffffffffffffff811115612af757612af661247c565b5b612b0385828601612a94565b925050602083013567ffffffffffffffff811115612b2457612b2361247c565b5b612b3085828601612a94565b9150509250929050565b600081519050919050565b600082825260208201905092915050565b6000819050602082019050919050565b6000612b72838361250c565b60208301905092915050565b6000602082019050919050565b6000612b9682612b3a565b612ba08185612b45565b9350612bab83612b56565b8060005b83811015612bdc578151612bc38882612b66565b9750612bce83612b7e565b925050600181019050612baf565b5085935050505092915050565b60006020820190508181036000830152612c038184612b8b565b905092915050565b612c14816125d7565b8114612c1f57600080fd5b50565b600081359050612c3181612c0b565b92915050565b60008060408385031215612c4e57612c4d612477565b5b600083013567ffffffffffffffff811115612c6c57612c6b61247c565b5b612c7885828601612a94565b9250506020612c8985828601612c22565b9150509250929050565b600081519050919050565b600082825260208201905092915050565b6000819050602082019050919050565b6000608083016000830151612cd7600086018261250c565b5060208301518482036020860152612cef8282612572565b91505060408301518482036040860152612d098282612572565b91505060608301518482036060860152612d2382826127dd565b9150508091505092915050565b6000612d3c8383612cbf565b905092915050565b6000602082019050919050565b6000612d5c82612c93565b612d668185612c9e565b935083602082028501612d7885612caf565b8060005b85811015612db45784840389528151612d958582612d30565b9450612da083612d44565b925060208a01995050600181019050612d7c565b50829750879550505050505092915050565b60006020820190508181036000830152612de08184612d51565b905092915050565b612df181612660565b8114612dfc57600080fd5b50565b600081359050612e0e81612de8565b92915050565b60008060408385031215612e2b57612e2a612477565b5b6000612e39858286016124ca565b9250506020612e4a85828601612dff565b9150509250929050565b600082825260208201905092915050565b6000612e70826125ab565b612e7a8185612e54565b935083602082028501612e8c856125c7565b8060005b85811015612ec85784840389528151612ea985826127bc565b9450612eb4836127d0565b925060208a01995050600181019050612e90565b50829750879550505050505092915050565b60006020820190508181036000830152612ef48184612e65565b905092915050565b600060208284031215612f1257612f11612477565b5b6000612f2084828501612dff565b91505092915050565b600080600060608486031215612f4257612f41612477565b5b6000612f50868287016124ca565b935050602084013567ffffffffffffffff811115612f7157612f7061247c565b5b612f7d86828701612a94565b925050604084013567ffffffffffffffff811115612f9e57612f9d61247c565b5b612faa86828701612a94565b9150509250925092565b600080600060608486031215612fcd57612fcc612477565b5b6000612fdb86828701612dff565b935050602084013567ffffffffffffffff811115612ffc57612ffb61247c565b5b61300886828701612a94565b925050604061301986828701612c22565b9150509250925092565b7f4e487b7100000000000000000000000000000000000000000000000000000000600052602260045260246000fd5b6000600282049050600182168061306a57607f821691505b60208210810361307d5761307c613023565b5b50919050565b600082825260208201905092915050565b7f5573657220646f6573206e6f7420657869737400000000000000000000000000600082015250565b60006130ca601383613083565b91506130d582613094565b602082019050919050565b600060208201905081810360008301526130f9816130bd565b9050919050565b7f4e487b7100000000000000000000000000000000000000000000000000000000600052603260045260246000fd5b7f4e487b7100000000000000000000000000000000000000000000000000000000600052601160045260246000fd5b6000613169826125d7565b91507fffffffffffffffffffffffffffffffffffffffffffffffffffffffffffffffff820361319b5761319a61312f565b5b600182019050919050565b7f50726f66696c6520646f6573206e6f7420657869737400000000000000000000600082015250565b60006131dc601683613083565b91506131e7826131a6565b602082019050919050565b6000602082019050818103600083015261320b816131cf565b9050919050565b60008190508160005260206000209050919050565b60006020601f8301049050919050565b600082821b905092915050565b6000600883026132747fffffffffffffffffffffffffffffffffffffffffffffffffffffffffffffffff82613237565b61327e8683613237565b95508019841693508086168417925050509392505050565b6000819050919050565b60006132bb6132b66132b1846125d7565b613296565b6125d7565b9050919050565b6000819050919050565b6132d5836132a0565b6132e96132e1826132c2565b848454613244565b825550505050565b600090565b6132fe6132f1565b6133098184846132cc565b505050565b5b8181101561332d576133226000826132f6565b60018101905061330f565b5050565b601f8211156133725761334381613212565b61334c84613227565b8101602085101561335b578190505b61336f61336785613227565b83018261330e565b50505b505050565b600082821c905092915050565b600061339560001984600802613377565b1980831691505092915050565b60006133ae8383613384565b9150826002028217905092915050565b6133c78261251b565b67ffffffffffffffff8111156133e0576133df612997565b5b6133ea8254613052565b6133f5828285613331565b600060209050601f8311600181146134285760008415613416578287015190505b61342085826133a2565b865550613488565b601f19841661343686613212565b60005b8281101561345e57848901518255600182019150602085019450602081019050613439565b8683101561347b5784890151613477601f891682613384565b8355505b6001600288020188555050505b505050505050565b7f536b696c6c206c6576656c206d757374206265206265747765656e203120616e60008201527f6420350000000000000000000000000000000000000000000000000000000000602082015250565b60006134ec602383613083565b91506134f782613490565b604082019050919050565b6000602082019050818103600083015261351b816134df565b9050919050565b7f596f752063616e6e6f742076616c696461746520796f7572206f776e20736b6960008201527f6c6c730000000000000000000000000000000000000000000000000000000000602082015250565b600061357e602383613083565b915061358982613522565b604082019050919050565b600060208201905081810360008301526135ad81613571565b9050919050565b7f536b696c6c20646f6573206e6f74206578697374000000000000000000000000600082015250565b60006135ea601483613083565b91506135f5826135b4565b602082019050919050565b60006020820190508181036000830152613619816135dd565b9050919050565b7f56616c696461746f7220646f6573206e6f742065786973740000000000000000600082015250565b6000613656601883613083565b915061366182613620565b602082019050919050565b6000602082019050818103600083015261368581613649565b9050919050565b6000613697826125d7565b91506136a2836125d7565b92508282039050818111156136ba576136b961312f565b5b92915050565b60006136cb826125d7565b91506136d6836125d7565b92508282019050808211156136ee576136ed61312f565b5b92915050565b60008154905061370381613052565b9050919050565b8181036137185750506137f0565b613721826136f4565b67ffffffffffffffff81111561373a57613739612997565b5b6137448254613052565b61374f828285613331565b6000601f83116001811461377e576000841561376c578287015490505b61377685826133a2565b8655506137e9565b601f19841661378c87613212565b965061379786613212565b60005b828110156137bf5784890154825560018201915060018501945060208101905061379a565b868310156137dc57848901546137d8601f891682613384565b8355505b6001600288020188555050505b5050505050505b565b7f4e487b7100000000000000000000000000000000000000000000000000000000600052603160045260246000fd5b600061382c826125d7565b91506000820361383f5761383e61312f565b5b60018203905091905056fea26469706673582212206a8b7f1e2e5760465ac4b6eb13955cac6ad82a68f3dc3d25ba3c95e10916e37164736f6c63430008130033",
  "linkReferences": {},
  "deployedLinkReferences": {}
}